20200612-18:39:02.729264000 : 8=FIX.4.4|9=71|35=A|34=1|49=EXECLINKS|52=20200612-18:39:02.728|56=COEPEXCH|98=0|108=1|10=198|
20200612-18:39:02.729874000 : 8=FIX.4.4|9=71|35=A|34=1|49=COEPEXCH|52=20200612-18:39:02.729|56=EXECLINKS|98=0|108=1|10=199|
20200612-18:40:06.246378000 : 8=FIX.4.4|9=71|35=A|34=2|49=EXECLINKS|52=20200612-18:40:06.245|56=COEPEXCH|98=0|108=1|10=189|
20200612-18:40:06.246734000 : 8=FIX.4.4|9=71|35=A|34=2|49=COEPEXCH|52=20200612-18:40:06.246|56=EXECLINKS|98=0|108=1|10=190|
20200612-18:45:22.015883000 : 8=FIX.4.4|9=71|35=A|34=3|49=EXECLINKS|52=20200612-18:45:22.015|56=COEPEXCH|98=0|108=1|10=188|
20200612-18:45:22.016357000 : 8=FIX.4.4|9=71|35=A|34=3|49=COEPEXCH|52=20200612-18:45:22.016|56=EXECLINKS|98=0|108=1|10=189|
20200612-18:45:23.006545000 : 8=FIX.4.4|9=60|35=0|34=4|49=COEPEXCH|52=20200612-18:45:23.006|56=EXECLINKS|10=196|
20200612-18:45:23.006913000 : 8=FIX.4.4|9=60|35=0|34=4|49=EXECLINKS|52=20200612-18:45:23.006|56=COEPEXCH|10=196|
20200612-18:45:24.875554000 : 8=FIX.4.4|9=60|35=0|34=5|49=EXECLINKS|52=20200612-18:45:24.875|56=COEPEXCH|10=212|
20200612-18:45:24.876309000 : 8=FIX.4.4|9=60|35=0|34=5|49=COEPEXCH|52=20200612-18:45:24.876|56=EXECLINKS|10=213|
20200612-18:45:25.810013000 : 8=FIX.4.4|9=60|35=0|34=6|49=EXECLINKS|52=20200612-18:45:25.809|56=COEPEXCH|10=211|
20200612-18:45:25.810722000 : 8=FIX.4.4|9=60|35=0|34=6|49=COEPEXCH|52=20200612-18:45:25.810|56=EXECLINKS|10=203|
20200612-18:45:26.743664000 : 8=FIX.4.4|9=60|35=0|34=7|49=EXECLINKS|52=20200612-18:45:26.743|56=COEPEXCH|10=210|
20200612-18:45:26.744418000 : 8=FIX.4.4|9=60|35=0|34=7|49=COEPEXCH|52=20200612-18:45:26.744|56=EXECLINKS|10=211|
20200612-18:45:27.676505000 : 8=FIX.4.4|9=60|35=0|34=8|49=EXECLINKS|52=20200612-18:45:27.676|56=COEPEXCH|10=217|
20200612-18:45:27.677203000 : 8=FIX.4.4|9=60|35=0|34=8|49=COEPEXCH|52=20200612-18:45:27.676|56=EXECLINKS|10=217|
20200612-18:45:28.608477000 : 8=FIX.4.4|9=60|35=0|34=9|49=EXECLINKS|52=20200612-18:45:28.608|56=COEPEXCH|10=214|
20200612-18:45:28.609158000 : 8=FIX.4.4|9=60|35=0|34=9|49=COEPEXCH|52=20200612-18:45:28.608|56=EXECLINKS|10=214|
20200612-18:45:29.539669000 : 8=FIX.4.4|9=61|35=0|34=10|49=EXECLINKS|52=20200612-18:45:29.539|56=COEPEXCH|10=003|
20200612-18:45:29.540425000 : 8=FIX.4.4|9=61|35=0|34=10|49=COEPEXCH|52=20200612-18:45:29.540|56=EXECLINKS|10=251|
20200612-18:45:30.470118000 : 8=FIX.4.4|9=61|35=0|34=11|49=EXECLINKS|52=20200612-18:45:30.469|56=COEPEXCH|10=254|
20200612-18:45:30.470788000 : 8=FIX.4.4|9=61|35=0|34=11|49=COEPEXCH|52=20200612-18:45:30.470|56=EXECLINKS|10=246|
20200612-18:45:31.399644000 : 8=FIX.4.4|9=61|35=0|34=12|49=EXECLINKS|52=20200612-18:45:31.399|56=COEPEXCH|10=002|
20200612-18:45:31.400393000 : 8=FIX.4.4|9=61|35=0|34=12|49=COEPEXCH|52=20200612-18:45:31.400|56=EXECLINKS|10=241|
20200612-18:45:32.328197000 : 8=FIX.4.4|9=61|35=0|34=13|49=EXECLINKS|52=20200612-18:45:32.327|56=COEPEXCH|10=251|
20200612-18:45:32.328869000 : 8=FIX.4.4|9=61|35=0|34=13|49=COEPEXCH|52=20200612-18:45:32.328|56=EXECLINKS|10=252|
20200612-18:45:33.256133000 : 8=FIX.4.4|9=61|35=0|34=14|49=EXECLINKS|52=20200612-18:45:33.255|56=COEPEXCH|10=253|
20200612-18:45:33.257507000 : 8=FIX.4.4|9=61|35=0|34=14|49=COEPEXCH|52=20200612-18:45:33.257|56=EXECLINKS|10=255|
20200612-18:45:34.183958000 : 8=FIX.4.4|9=61|35=0|34=15|49=EXECLINKS|52=20200612-18:45:34.183|56=COEPEXCH|10=255|
20200612-18:45:34.184636000 : 8=FIX.4.4|9=61|35=0|34=15|49=COEPEXCH|52=20200612-18:45:34.184|56=EXECLINKS|10=000|
20200612-18:45:35.110181000 : 8=FIX.4.4|9=61|35=0|34=16|49=EXECLINKS|52=20200612-18:45:35.109|56=COEPEXCH|10=255|
20200612-18:45:35.110898000 : 8=FIX.4.4|9=61|35=0|34=16|49=COEPEXCH|52=20200612-18:45:35.110|56=EXECLINKS|10=247|
20200612-18:45:36.035673000 : 8=FIX.4.4|9=61|35=0|34=17|49=EXECLINKS|52=20200612-18:45:36.035|56=COEPEXCH|10=255|
20200612-18:45:36.036477000 : 8=FIX.4.4|9=61|35=0|34=17|49=COEPEXCH|52=20200612-18:45:36.036|56=EXECLINKS|10=000|
20200612-18:45:37.017569000 : 8=FIX.4.4|9=61|35=0|34=18|49=COEPEXCH|52=20200612-18:45:37.017|56=EXECLINKS|10=001|
20200612-18:45:37.017926000 : 8=FIX.4.4|9=61|35=0|34=18|49=EXECLINKS|52=20200612-18:45:37.017|56=COEPEXCH|10=001|
20200612-18:45:38.863866000 : 8=FIX.4.4|9=61|35=0|34=19|49=EXECLINKS|52=20200612-18:45:38.863|56=COEPEXCH|10=012|
20200612-18:45:38.864551000 : 8=FIX.4.4|9=61|35=0|34=19|49=COEPEXCH|52=20200612-18:45:38.864|56=EXECLINKS|10=013|
20200612-18:45:39.786823000 : 8=FIX.4.4|9=61|35=0|34=20|49=EXECLINKS|52=20200612-18:45:39.786|56=COEPEXCH|10=009|
20200612-18:45:39.787499000 : 8=FIX.4.4|9=61|35=0|34=20|49=COEPEXCH|52=20200612-18:45:39.787|56=EXECLINKS|10=010|
20200612-18:52:50.668163000 : 8=FIX.4.4|9=72|35=A|34=21|49=EXECLINKS|52=20200612-18:52:50.668|56=COEPEXCH|98=0|108=1|10=250|
20200612-18:52:50.668802000 : 8=FIX.4.4|9=72|35=A|34=21|49=COEPEXCH|52=20200612-18:52:50.668|56=EXECLINKS|98=0|108=1|10=250|
20200612-18:53:32.529750000 : 8=FIX.4.4|9=72|35=A|34=22|49=EXECLINKS|52=20200612-18:53:32.529|56=COEPEXCH|98=0|108=1|10=248|
20200612-18:53:32.530391000 : 8=FIX.4.4|9=72|35=A|34=22|49=COEPEXCH|52=20200612-18:53:32.530|56=EXECLINKS|98=0|108=1|10=240|
20200612-18:54:00.299898000 : 8=FIX.4.4|9=72|35=A|34=23|49=EXECLINKS|52=20200612-18:54:00.299|56=COEPEXCH|98=0|108=1|10=249|
20200612-18:54:00.300549000 : 8=FIX.4.4|9=72|35=A|34=23|49=COEPEXCH|52=20200612-18:54:00.300|56=EXECLINKS|98=0|108=1|10=232|
20200612-18:54:19.497697000 : 8=FIX.4.4|9=72|35=A|34=24|49=EXECLINKS|52=20200612-18:54:19.497|56=COEPEXCH|98=0|108=1|10=004|
20200612-18:54:19.498110000 : 8=FIX.4.4|9=72|35=A|34=24|49=COEPEXCH|52=20200612-18:54:19.497|56=EXECLINKS|98=0|108=1|10=004|
20200612-18:54:20.495993000 : 8=FIX.4.4|9=61|35=0|34=25|49=COEPEXCH|52=20200612-18:54:20.495|56=EXECLINKS|10=001|
20200612-18:54:20.496424000 : 8=FIX.4.4|9=61|35=5|34=25|49=EXECLINKS|52=20200612-18:54:20.496|56=COEPEXCH|10=007|
20200612-18:54:20.497147000 : 8=FIX.4.4|9=61|35=5|34=26|49=COEPEXCH|52=20200612-18:54:20.496|56=EXECLINKS|10=008|
20200612-18:55:41.505216000 : 8=FIX.4.4|9=72|35=A|34=26|49=EXECLINKS|52=20200612-18:55:41.505|56=COEPEXCH|98=0|108=1|10=248|
20200612-18:55:41.505872000 : 8=FIX.4.4|9=72|35=A|34=27|49=COEPEXCH|52=20200612-18:55:41.505|56=EXECLINKS|98=0|108=1|10=249|
20200612-18:55:42.506242000 : 8=FIX.4.4|9=61|35=5|34=27|49=EXECLINKS|52=20200612-18:55:42.506|56=COEPEXCH|10=006|
20200612-18:55:42.506357000 : 8=FIX.4.4|9=61|35=0|34=28|49=COEPEXCH|52=20200612-18:55:42.505|56=EXECLINKS|10=001|
20200612-18:55:42.506782000 : 8=FIX.4.4|9=61|35=5|34=29|49=COEPEXCH|52=20200612-18:55:42.506|56=EXECLINKS|10=008|
20200612-18:56:11.280042000 : 8=FIX.4.4|9=72|35=A|34=28|49=EXECLINKS|52=20200612-18:56:11.279|56=COEPEXCH|98=0|108=1|10=000|
20200612-18:56:11.280421000 : 8=FIX.4.4|9=72|35=A|34=30|49=COEPEXCH|52=20200612-18:56:11.280|56=EXECLINKS|98=0|108=1|10=241|
20200612-18:56:35.695548000 : 8=FIX.4.4|9=72|35=A|34=29|49=EXECLINKS|52=20200612-18:56:35.695|56=COEPEXCH|98=0|108=1|10=009|
20200612-18:56:35.696042000 : 8=FIX.4.4|9=72|35=A|34=31|49=COEPEXCH|52=20200612-18:56:35.695|56=EXECLINKS|98=0|108=1|10=002|
20200612-18:56:35.759306000 : 8=FIX.4.4|9=146|35=D|34=30|49=EXECLINKS|52=20200612-18:56:35.759|56=COEPEXCH|1=EXECLINKS|11=1|38=2|40=2|44=87|54=1|55=amzn|58=Buy shares|60=20200612-22:29:00.000|10=112|
20200612-18:56:35.760369000 : 8=FIX.4.4|9=77|35=8|34=32|49=COEPEXCH|52=20200612-18:56:35.760|56=EXECLINKS|37=1|39=0|150=0|10=200|
20200612-18:57:27.150229000 : 8=FIX.4.4|9=72|35=A|34=31|49=EXECLINKS|52=20200612-18:57:27.150|56=COEPEXCH|98=0|108=1|10=246|
20200612-18:57:27.150700000 : 8=FIX.4.4|9=72|35=A|34=33|49=COEPEXCH|52=20200612-18:57:27.150|56=EXECLINKS|98=0|108=1|10=248|
20200612-18:57:27.150940000 : 8=FIX.4.4|9=71|35=2|34=32|49=EXECLINKS|52=20200612-18:57:27.150|56=COEPEXCH|7=32|16=0|10=175|
20200612-18:57:27.151310000 : 8=FIX.4.4|9=108|35=8|34=32|43=Y|49=COEPEXCH|52=20200612-18:57:27.151|56=EXECLINKS|122=20200612-18:56:35.760|37=1|39=0|150=0|10=245|
20200612-18:57:27.191881000 : 8=FIX.4.4|9=104|35=4|34=33|43=Y|49=COEPEXCH|52=20200612-18:57:27.151|56=EXECLINKS|122=20200612-18:57:27.151|36=34|123=Y|10=110|
20200612-18:57:27.224139000 : 8=FIX.4.4|9=146|35=D|34=33|49=EXECLINKS|52=20200612-18:57:27.223|56=COEPEXCH|1=EXECLINKS|11=1|38=2|40=2|44=87|54=1|55=amzn|58=Buy shares|60=20200612-22:29:00.000|10=103|
20200612-18:57:27.225059000 : 8=FIX.4.4|9=77|35=8|34=34|49=COEPEXCH|52=20200612-18:57:27.224|56=EXECLINKS|37=1|39=0|150=0|10=199|
20200612-18:57:28.149676000 : 8=FIX.4.4|9=61|35=0|34=34|49=EXECLINKS|52=20200612-18:57:28.149|56=COEPEXCH|10=008|
20200612-18:57:28.150800000 : 8=FIX.4.4|9=61|35=0|34=35|49=COEPEXCH|52=20200612-18:57:28.150|56=EXECLINKS|10=001|
20200612-18:57:29.073977000 : 8=FIX.4.4|9=61|35=0|34=35|49=EXECLINKS|52=20200612-18:57:29.073|56=COEPEXCH|10=006|
20200612-18:57:29.074738000 : 8=FIX.4.4|9=61|35=0|34=36|49=COEPEXCH|52=20200612-18:57:29.074|56=EXECLINKS|10=008|
20200612-18:57:30.073059000 : 8=FIX.4.4|9=61|35=0|34=37|49=COEPEXCH|52=20200612-18:57:30.072|56=EXECLINKS|10=255|
20200612-18:57:30.073419000 : 8=FIX.4.4|9=61|35=0|34=36|49=EXECLINKS|52=20200612-18:57:30.073|56=COEPEXCH|10=255|
20200612-18:57:31.071297000 : 8=FIX.4.4|9=61|35=0|34=38|49=COEPEXCH|52=20200612-18:57:31.070|56=EXECLINKS|10=255|
20200612-18:57:31.071657000 : 8=FIX.4.4|9=61|35=0|34=37|49=EXECLINKS|52=20200612-18:57:31.071|56=COEPEXCH|10=255|
20200612-18:57:32.068761000 : 8=FIX.4.4|9=61|35=0|34=39|49=COEPEXCH|52=20200612-18:57:32.068|56=EXECLINKS|10=008|
20200612-18:57:32.069123000 : 8=FIX.4.4|9=61|35=0|34=38|49=EXECLINKS|52=20200612-18:57:32.069|56=COEPEXCH|10=008|
20200612-18:57:33.065464000 : 8=FIX.4.4|9=61|35=0|34=40|49=COEPEXCH|52=20200612-18:57:33.064|56=EXECLINKS|10=253|
20200612-18:57:33.065820000 : 8=FIX.4.4|9=61|35=0|34=39|49=EXECLINKS|52=20200612-18:57:33.065|56=COEPEXCH|10=006|
20200612-18:57:34.061238000 : 8=FIX.4.4|9=61|35=0|34=41|49=COEPEXCH|52=20200612-18:57:34.060|56=EXECLINKS|10=251|
20200612-18:57:34.061609000 : 8=FIX.4.4|9=61|35=0|34=40|49=EXECLINKS|52=20200612-18:57:34.061|56=COEPEXCH|10=251|
20200612-18:57:35.056255000 : 8=FIX.4.4|9=61|35=0|34=42|49=COEPEXCH|52=20200612-18:57:35.055|56=EXECLINKS|10=001|
20200612-18:57:35.056613000 : 8=FIX.4.4|9=61|35=0|34=41|49=EXECLINKS|52=20200612-18:57:35.056|56=COEPEXCH|10=001|
20200612-18:57:36.050285000 : 8=FIX.4.4|9=61|35=0|34=43|49=COEPEXCH|52=20200612-18:57:36.049|56=EXECLINKS|10=006|
20200612-18:57:36.050649000 : 8=FIX.4.4|9=61|35=0|34=42|49=EXECLINKS|52=20200612-18:57:36.050|56=COEPEXCH|10=253|
20200612-18:57:37.043442000 : 8=FIX.4.4|9=61|35=0|34=44|49=COEPEXCH|52=20200612-18:57:37.042|56=EXECLINKS|10=001|
20200612-18:57:37.043833000 : 8=FIX.4.4|9=61|35=0|34=43|49=EXECLINKS|52=20200612-18:57:37.043|56=COEPEXCH|10=001|
20200612-18:57:38.035852000 : 8=FIX.4.4|9=61|35=0|34=45|49=COEPEXCH|52=20200612-18:57:38.035|56=EXECLINKS|10=005|
20200612-18:57:38.036215000 : 8=FIX.4.4|9=61|35=0|34=44|49=EXECLINKS|52=20200612-18:57:38.036|56=COEPEXCH|10=005|
20200612-18:57:39.027309000 : 8=FIX.4.4|9=61|35=0|34=46|49=COEPEXCH|52=20200612-18:57:39.026|56=EXECLINKS|10=007|
20200612-18:57:39.027670000 : 8=FIX.4.4|9=61|35=0|34=45|49=EXECLINKS|52=20200612-18:57:39.027|56=COEPEXCH|10=007|
20200612-18:57:40.017948000 : 8=FIX.4.4|9=61|35=0|34=47|49=COEPEXCH|52=20200612-18:57:40.017|56=EXECLINKS|10=000|
20200612-18:57:40.018348000 : 8=FIX.4.4|9=61|35=0|34=46|49=EXECLINKS|52=20200612-18:57:40.018|56=COEPEXCH|10=000|
20200612-18:57:41.007876000 : 8=FIX.4.4|9=61|35=0|34=48|49=COEPEXCH|52=20200612-18:57:41.007|56=EXECLINKS|10=001|
20200612-18:57:41.008257000 : 8=FIX.4.4|9=61|35=0|34=47|49=EXECLINKS|52=20200612-18:57:41.008|56=COEPEXCH|10=001|
20200612-18:57:42.836096000 : 8=FIX.4.4|9=61|35=0|34=48|49=EXECLINKS|52=20200612-18:57:42.835|56=COEPEXCH|10=011|
20200612-18:57:42.836822000 : 8=FIX.4.4|9=61|35=0|34=49|49=COEPEXCH|52=20200612-18:57:42.836|56=EXECLINKS|10=013|
20200612-18:57:43.750058000 : 8=FIX.4.4|9=61|35=0|34=49|49=EXECLINKS|52=20200612-18:57:43.749|56=COEPEXCH|10=017|
20200612-18:57:43.750829000 : 8=FIX.4.4|9=61|35=0|34=50|49=COEPEXCH|52=20200612-18:57:43.750|56=EXECLINKS|10=001|
20200612-18:57:44.663162000 : 8=FIX.4.4|9=61|35=0|34=50|49=EXECLINKS|52=20200612-18:57:44.662|56=COEPEXCH|10=004|
20200612-18:57:44.663970000 : 8=FIX.4.4|9=61|35=0|34=51|49=COEPEXCH|52=20200612-18:57:44.663|56=EXECLINKS|10=006|
20200612-18:57:45.575888000 : 8=FIX.4.4|9=61|35=0|34=51|49=EXECLINKS|52=20200612-18:57:45.575|56=COEPEXCH|10=009|
20200612-18:57:45.577221000 : 8=FIX.4.4|9=61|35=0|34=52|49=COEPEXCH|52=20200612-18:57:45.576|56=EXECLINKS|10=011|
20200612-18:57:46.487922000 : 8=FIX.4.4|9=61|35=0|34=52|49=EXECLINKS|52=20200612-18:57:46.487|56=COEPEXCH|10=013|
20200612-18:57:46.488657000 : 8=FIX.4.4|9=61|35=0|34=53|49=COEPEXCH|52=20200612-18:57:46.488|56=EXECLINKS|10=015|
20200612-18:57:47.398391000 : 8=FIX.4.4|9=61|35=0|34=53|49=EXECLINKS|52=20200612-18:57:47.398|56=COEPEXCH|10=016|
20200612-18:57:47.399140000 : 8=FIX.4.4|9=61|35=0|34=54|49=COEPEXCH|52=20200612-18:57:47.398|56=EXECLINKS|10=017|
20200612-18:57:48.308090000 : 8=FIX.4.4|9=61|35=0|34=54|49=EXECLINKS|52=20200612-18:57:48.307|56=COEPEXCH|10=008|
20200612-18:57:48.308831000 : 8=FIX.4.4|9=61|35=0|34=55|49=COEPEXCH|52=20200612-18:57:48.308|56=EXECLINKS|10=010|
20200612-18:57:49.216988000 : 8=FIX.4.4|9=61|35=0|34=55|49=EXECLINKS|52=20200612-18:57:49.216|56=COEPEXCH|10=009|
20200612-18:57:49.217729000 : 8=FIX.4.4|9=61|35=0|34=56|49=COEPEXCH|52=20200612-18:57:49.217|56=EXECLINKS|10=011|
20200612-18:57:50.124198000 : 8=FIX.4.4|9=61|35=0|34=56|49=EXECLINKS|52=20200612-18:57:50.123|56=COEPEXCH|10=255|
20200612-18:57:50.124929000 : 8=FIX.4.4|9=61|35=0|34=57|49=COEPEXCH|52=20200612-18:57:50.124|56=EXECLINKS|10=001|
20200612-18:57:51.031276000 : 8=FIX.4.4|9=61|35=0|34=57|49=EXECLINKS|52=20200612-18:57:51.031|56=COEPEXCH|10=255|
20200612-18:57:51.031858000 : 8=FIX.4.4|9=61|35=0|34=58|49=COEPEXCH|52=20200612-18:57:51.031|56=EXECLINKS|10=000|
20200612-18:57:52.013930000 : 8=FIX.4.4|9=61|35=0|34=59|49=COEPEXCH|52=20200612-18:57:52.013|56=EXECLINKS|10=002|
20200612-18:57:52.014293000 : 8=FIX.4.4|9=61|35=0|34=58|49=EXECLINKS|52=20200612-18:57:52.014|56=COEPEXCH|10=002|
20200612-18:57:53.824414000 : 8=FIX.4.4|9=61|35=0|34=59|49=EXECLINKS|52=20200612-18:57:53.824|56=COEPEXCH|10=013|
20200612-18:57:53.825104000 : 8=FIX.4.4|9=61|35=0|34=60|49=COEPEXCH|52=20200612-18:57:53.824|56=EXECLINKS|10=005|
20200612-18:57:54.729745000 : 8=FIX.4.4|9=61|35=0|34=60|49=EXECLINKS|52=20200612-18:57:54.729|56=COEPEXCH|10=010|
20200612-18:57:54.730488000 : 8=FIX.4.4|9=61|35=0|34=61|49=COEPEXCH|52=20200612-18:57:54.730|56=EXECLINKS|10=003|
20200612-18:57:55.634369000 : 8=FIX.4.4|9=61|35=0|34=61|49=EXECLINKS|52=20200612-18:57:55.634|56=COEPEXCH|10=007|
20200612-18:57:55.635112000 : 8=FIX.4.4|9=61|35=0|34=62|49=COEPEXCH|52=20200612-18:57:55.634|56=EXECLINKS|10=008|
20200612-18:57:56.538160000 : 8=FIX.4.4|9=61|35=0|34=62|49=EXECLINKS|52=20200612-18:57:56.537|56=COEPEXCH|10=011|
20200612-18:57:56.538891000 : 8=FIX.4.4|9=61|35=0|34=63|49=COEPEXCH|52=20200612-18:57:56.538|56=EXECLINKS|10=013|
20200612-18:57:57.441234000 : 8=FIX.4.4|9=61|35=0|34=63|49=EXECLINKS|52=20200612-18:57:57.440|56=COEPEXCH|10=006|
20200612-18:57:57.442000000 : 8=FIX.4.4|9=61|35=0|34=64|49=COEPEXCH|52=20200612-18:57:57.441|56=EXECLINKS|10=008|
20200612-18:57:58.343459000 : 8=FIX.4.4|9=61|35=0|34=64|49=EXECLINKS|52=20200612-18:57:58.343|56=COEPEXCH|10=010|
20200612-18:57:58.344363000 : 8=FIX.4.4|9=61|35=0|34=65|49=COEPEXCH|52=20200612-18:57:58.344|56=EXECLINKS|10=012|
20200612-18:57:59.245027000 : 8=FIX.4.4|9=61|35=0|34=65|49=EXECLINKS|52=20200612-18:57:59.244|56=COEPEXCH|10=012|
20200612-18:57:59.245804000 : 8=FIX.4.4|9=61|35=0|34=66|49=COEPEXCH|52=20200612-18:57:59.245|56=EXECLINKS|10=014|
20200612-18:58:00.145674000 : 8=FIX.4.4|9=61|35=0|34=66|49=EXECLINKS|52=20200612-18:58:00.145|56=COEPEXCH|10=000|
20200612-18:58:00.146426000 : 8=FIX.4.4|9=61|35=0|34=67|49=COEPEXCH|52=20200612-18:58:00.146|56=EXECLINKS|10=002|
20200612-18:58:01.045449000 : 8=FIX.4.4|9=61|35=0|34=67|49=EXECLINKS|52=20200612-18:58:01.045|56=COEPEXCH|10=001|
20200612-18:58:01.046197000 : 8=FIX.4.4|9=61|35=0|34=68|49=COEPEXCH|52=20200612-18:58:01.045|56=EXECLINKS|10=002|
20200612-18:58:02.022476000 : 8=FIX.4.4|9=61|35=0|34=69|49=COEPEXCH|52=20200612-18:58:02.021|56=EXECLINKS|10=254|
20200612-18:58:02.022694000 : 8=FIX.4.4|9=61|35=0|34=68|49=EXECLINKS|52=20200612-18:58:02.022|56=COEPEXCH|10=254|
20200612-18:58:03.817571000 : 8=FIX.4.4|9=61|35=0|34=69|49=EXECLINKS|52=20200612-18:58:03.817|56=COEPEXCH|10=012|
20200612-18:58:03.818350000 : 8=FIX.4.4|9=61|35=0|34=70|49=COEPEXCH|52=20200612-18:58:03.818|56=EXECLINKS|10=005|
20200612-18:58:04.715249000 : 8=FIX.4.4|9=61|35=0|34=70|49=EXECLINKS|52=20200612-18:58:04.715|56=COEPEXCH|10=002|
20200612-18:58:04.716086000 : 8=FIX.4.4|9=61|35=0|34=71|49=COEPEXCH|52=20200612-18:58:04.715|56=EXECLINKS|10=003|
20200612-18:58:05.612225000 : 8=FIX.4.4|9=61|35=0|34=71|49=EXECLINKS|52=20200612-18:58:05.611|56=COEPEXCH|10=255|
20200612-18:58:05.612971000 : 8=FIX.4.4|9=61|35=0|34=72|49=COEPEXCH|52=20200612-18:58:05.612|56=EXECLINKS|10=001|
20200612-18:58:06.508221000 : 8=FIX.4.4|9=61|35=0|34=72|49=EXECLINKS|52=20200612-18:58:06.508|56=COEPEXCH|10=006|
20200612-18:58:06.508959000 : 8=FIX.4.4|9=61|35=0|34=73|49=COEPEXCH|52=20200612-18:58:06.508|56=EXECLINKS|10=007|
20200612-18:58:07.403541000 : 8=FIX.4.4|9=61|35=0|34=73|49=EXECLINKS|52=20200612-18:58:07.403|56=COEPEXCH|10=002|
20200612-18:58:07.404669000 : 8=FIX.4.4|9=61|35=0|34=74|49=COEPEXCH|52=20200612-18:58:07.404|56=EXECLINKS|10=004|
20200612-18:58:08.298415000 : 8=FIX.4.4|9=61|35=0|34=74|49=EXECLINKS|52=20200612-18:58:08.298|56=COEPEXCH|10=016|
20200612-18:58:08.299133000 : 8=FIX.4.4|9=61|35=0|34=75|49=COEPEXCH|52=20200612-18:58:08.298|56=EXECLINKS|10=017|
20200612-18:58:09.192070000 : 8=FIX.4.4|9=61|35=0|34=75|49=EXECLINKS|52=20200612-18:58:09.191|56=COEPEXCH|10=010|
20200612-18:58:09.192769000 : 8=FIX.4.4|9=61|35=0|34=76|49=COEPEXCH|52=20200612-18:58:09.192|56=EXECLINKS|10=012|
20200612-18:58:10.084241000 : 8=FIX.4.4|9=61|35=0|34=76|49=EXECLINKS|52=20200612-18:58:10.084|56=COEPEXCH|10=004|
20200612-18:58:10.084927000 : 8=FIX.4.4|9=61|35=0|34=77|49=COEPEXCH|52=20200612-18:58:10.084|56=EXECLINKS|10=005|
20200612-18:58:11.054877000 : 8=FIX.4.4|9=61|35=0|34=78|49=COEPEXCH|52=20200612-18:58:11.054|56=EXECLINKS|10=004|
20200612-18:58:11.055253000 : 8=FIX.4.4|9=61|35=0|34=77|49=EXECLINKS|52=20200612-18:58:11.055|56=COEPEXCH|10=004|
20200612-18:58:12.024484000 : 8=FIX.4.4|9=61|35=0|34=79|49=COEPEXCH|52=20200612-18:58:12.024|56=EXECLINKS|10=003|
20200612-18:58:12.024843000 : 8=FIX.4.4|9=61|35=0|34=78|49=EXECLINKS|52=20200612-18:58:12.024|56=COEPEXCH|10=002|
20200612-18:58:13.803981000 : 8=FIX.4.4|9=61|35=0|34=79|49=EXECLINKS|52=20200612-18:58:13.803|56=COEPEXCH|10=009|
20200612-18:58:13.804661000 : 8=FIX.4.4|9=61|35=0|34=80|49=COEPEXCH|52=20200612-18:58:13.804|56=EXECLINKS|10=002|
20200612-19:05:24.644004000 : 8=FIX.4.4|9=72|35=A|34=80|49=EXECLINKS|52=20200612-19:05:24.643|56=COEPEXCH|98=0|108=1|10=248|
20200612-19:05:24.644639000 : 8=FIX.4.4|9=72|35=A|34=81|49=COEPEXCH|52=20200612-19:05:24.644|56=EXECLINKS|98=0|108=1|10=250|
20200612-19:05:24.714828000 : 8=FIX.4.4|9=146|35=D|34=81|49=EXECLINKS|52=20200612-19:05:24.714|56=COEPEXCH|1=EXECLINKS|11=3|38=2|40=2|44=87|54=1|55=amzn|58=Buy shares|60=20200612-22:29:00.000|10=104|
20200612-19:05:24.715682000 : 8=FIX.4.4|9=77|35=8|34=82|49=COEPEXCH|52=20200612-19:05:24.715|56=EXECLINKS|37=3|39=0|150=0|10=200|
20200612-19:05:25.643647000 : 8=FIX.4.4|9=61|35=0|34=82|49=EXECLINKS|52=20200612-19:05:25.643|56=COEPEXCH|10=001|
20200612-19:05:25.644520000 : 8=FIX.4.4|9=61|35=0|34=83|49=COEPEXCH|52=20200612-19:05:25.644|56=EXECLINKS|10=003|
20200612-19:05:26.571652000 : 8=FIX.4.4|9=61|35=0|34=83|49=EXECLINKS|52=20200612-19:05:26.571|56=COEPEXCH|10=003|
20200612-19:05:26.572921000 : 8=FIX.4.4|9=61|35=0|34=84|49=COEPEXCH|52=20200612-19:05:26.572|56=EXECLINKS|10=005|
20200612-19:05:27.499108000 : 8=FIX.4.4|9=61|35=0|34=84|49=EXECLINKS|52=20200612-19:05:27.498|56=COEPEXCH|10=013|
20200612-19:05:27.499657000 : 8=FIX.4.4|9=61|35=0|34=85|49=COEPEXCH|52=20200612-19:05:27.499|56=EXECLINKS|10=015|
20200612-19:05:28.425262000 : 8=FIX.4.4|9=61|35=0|34=85|49=EXECLINKS|52=20200612-19:05:28.424|56=COEPEXCH|10=004|
20200612-19:05:28.426121000 : 8=FIX.4.4|9=61|35=0|34=86|49=COEPEXCH|52=20200612-19:05:28.425|56=EXECLINKS|10=006|
20200612-19:05:29.350801000 : 8=FIX.4.4|9=61|35=0|34=86|49=EXECLINKS|52=20200612-19:05:29.350|56=COEPEXCH|10=004|
20200612-19:05:29.351571000 : 8=FIX.4.4|9=61|35=0|34=87|49=COEPEXCH|52=20200612-19:05:29.351|56=EXECLINKS|10=006|
20200612-19:05:30.275249000 : 8=FIX.4.4|9=61|35=0|34=87|49=EXECLINKS|52=20200612-19:05:30.275|56=COEPEXCH|10=003|
20200612-19:05:30.276174000 : 8=FIX.4.4|9=61|35=0|34=88|49=COEPEXCH|52=20200612-19:05:30.275|56=EXECLINKS|10=004|
20200612-19:05:31.199141000 : 8=FIX.4.4|9=61|35=0|34=88|49=EXECLINKS|52=20200612-19:05:31.198|56=COEPEXCH|10=009|
20200612-19:05:31.199898000 : 8=FIX.4.4|9=61|35=0|34=89|49=COEPEXCH|52=20200612-19:05:31.199|56=EXECLINKS|10=011|
20200612-19:05:32.122757000 : 8=FIX.4.4|9=61|35=0|34=89|49=EXECLINKS|52=20200612-19:05:32.121|56=COEPEXCH|10=253|
20200612-19:05:32.123269000 : 8=FIX.4.4|9=61|35=0|34=90|49=COEPEXCH|52=20200612-19:05:32.123|56=EXECLINKS|10=247|
20200612-19:05:33.044511000 : 8=FIX.4.4|9=61|35=0|34=90|49=EXECLINKS|52=20200612-19:05:33.044|56=COEPEXCH|10=250|
20200612-19:05:33.045250000 : 8=FIX.4.4|9=61|35=0|34=91|49=COEPEXCH|52=20200612-19:05:33.044|56=EXECLINKS|10=251|
20200612-19:05:34.039057000 : 8=FIX.4.4|9=61|35=0|34=92|49=COEPEXCH|52=20200612-19:05:34.038|56=EXECLINKS|10=000|
20200612-19:05:34.039430000 : 8=FIX.4.4|9=61|35=0|34=91|49=EXECLINKS|52=20200612-19:05:34.039|56=COEPEXCH|10=000|
20200612-19:05:35.032421000 : 8=FIX.4.4|9=61|35=0|34=93|49=COEPEXCH|52=20200612-19:05:35.031|56=EXECLINKS|10=251|
20200612-19:05:35.032785000 : 8=FIX.4.4|9=61|35=0|34=92|49=EXECLINKS|52=20200612-19:05:35.032|56=COEPEXCH|10=251|
20200612-19:05:36.024437000 : 8=FIX.4.4|9=61|35=0|34=94|49=COEPEXCH|52=20200612-19:05:36.023|56=EXECLINKS|10=254|
20200612-19:05:36.024802000 : 8=FIX.4.4|9=61|35=0|34=93|49=EXECLINKS|52=20200612-19:05:36.024|56=COEPEXCH|10=254|
20200612-19:05:37.016464000 : 8=FIX.4.4|9=61|35=0|34=95|49=COEPEXCH|52=20200612-19:05:37.015|56=EXECLINKS|10=001|
20200612-19:05:37.016863000 : 8=FIX.4.4|9=61|35=0|34=94|49=EXECLINKS|52=20200612-19:05:37.016|56=COEPEXCH|10=001|
20200612-19:05:38.007595000 : 8=FIX.4.4|9=61|35=0|34=96|49=COEPEXCH|52=20200612-19:05:38.007|56=EXECLINKS|10=004|
20200612-19:05:38.008013000 : 8=FIX.4.4|9=61|35=0|34=95|49=EXECLINKS|52=20200612-19:05:38.007|56=COEPEXCH|10=003|
20200612-19:05:39.841573000 : 8=FIX.4.4|9=61|35=0|34=96|49=EXECLINKS|52=20200612-19:05:39.841|56=COEPEXCH|10=011|
20200612-19:05:39.842341000 : 8=FIX.4.4|9=61|35=0|34=97|49=COEPEXCH|52=20200612-19:05:39.842|56=EXECLINKS|10=013|
20200612-19:05:40.758548000 : 8=FIX.4.4|9=61|35=0|34=97|49=EXECLINKS|52=20200612-19:05:40.758|56=COEPEXCH|10=011|
20200612-19:05:40.759291000 : 8=FIX.4.4|9=61|35=0|34=98|49=COEPEXCH|52=20200612-19:05:40.758|56=EXECLINKS|10=012|
20200612-19:05:41.674685000 : 8=FIX.4.4|9=61|35=0|34=98|49=EXECLINKS|52=20200612-19:05:41.674|56=COEPEXCH|10=010|
20200612-19:05:41.675447000 : 8=FIX.4.4|9=61|35=0|34=99|49=COEPEXCH|52=20200612-19:05:41.675|56=EXECLINKS|10=012|
20200612-19:05:42.589867000 : 8=FIX.4.4|9=61|35=0|34=99|49=EXECLINKS|52=20200612-19:05:42.589|56=COEPEXCH|10=017|
20200612-19:05:42.590268000 : 8=FIX.4.4|9=62|35=0|34=100|49=COEPEXCH|52=20200612-19:05:42.590|56=EXECLINKS|10=041|
20200612-19:05:43.504276000 : 8=FIX.4.4|9=62|35=0|34=100|49=EXECLINKS|52=20200612-19:05:43.504|56=COEPEXCH|10=037|
20200612-19:05:43.505168000 : 8=FIX.4.4|9=62|35=0|34=101|49=COEPEXCH|52=20200612-19:05:43.505|56=EXECLINKS|10=039|
20200612-19:05:44.418554000 : 8=FIX.4.4|9=62|35=0|34=101|49=EXECLINKS|52=20200612-19:05:44.418|56=COEPEXCH|10=043|
20200612-19:05:44.419318000 : 8=FIX.4.4|9=62|35=0|34=102|49=COEPEXCH|52=20200612-19:05:44.419|56=EXECLINKS|10=045|
20200612-19:05:45.332094000 : 8=FIX.4.4|9=62|35=0|34=102|49=EXECLINKS|52=20200612-19:05:45.331|56=COEPEXCH|10=039|
20200612-19:05:45.332822000 : 8=FIX.4.4|9=62|35=0|34=103|49=COEPEXCH|52=20200612-19:05:45.332|56=EXECLINKS|10=041|
20200612-19:05:46.244521000 : 8=FIX.4.4|9=62|35=0|34=103|49=EXECLINKS|52=20200612-19:05:46.244|56=COEPEXCH|10=044|
20200612-19:05:46.245367000 : 8=FIX.4.4|9=62|35=0|34=104|49=COEPEXCH|52=20200612-19:05:46.245|56=EXECLINKS|10=046|
20200612-19:10:11.998679000 : 8=FIX.4.4|9=73|35=A|34=104|49=EXECLINKS|52=20200612-19:10:11.998|56=COEPEXCH|98=0|108=1|10=043|
20200612-19:10:11.999153000 : 8=FIX.4.4|9=73|35=A|34=105|49=COEPEXCH|52=20200612-19:10:11.999|56=EXECLINKS|98=0|108=1|10=045|
20200612-19:10:12.066808000 : 8=FIX.4.4|9=147|35=D|34=105|49=EXECLINKS|52=20200612-19:10:12.066|56=COEPEXCH|1=EXECLINKS|11=3|38=2|40=2|44=87|54=1|55=amzn|58=Buy shares|60=20200612-22:29:00.000|10=143|
20200612-19:10:12.067730000 : 8=FIX.4.4|9=78|35=8|34=106|49=COEPEXCH|52=20200612-19:10:12.067|56=EXECLINKS|37=3|39=0|150=0|10=239|
20200612-19:10:13.066420000 : 8=FIX.4.4|9=62|35=0|34=107|49=COEPEXCH|52=20200612-19:10:13.065|56=EXECLINKS|10=039|
20200612-19:10:13.066797000 : 8=FIX.4.4|9=62|35=0|34=106|49=EXECLINKS|52=20200612-19:10:13.066|56=COEPEXCH|10=039|
20200612-19:10:14.064874000 : 8=FIX.4.4|9=62|35=0|34=108|49=COEPEXCH|52=20200612-19:10:14.064|56=EXECLINKS|10=040|
20200612-19:10:14.066612000 : 8=FIX.4.4|9=62|35=0|34=107|49=EXECLINKS|52=20200612-19:10:14.066|56=COEPEXCH|10=041|
20200612-19:10:15.063987000 : 8=FIX.4.4|9=62|35=0|34=109|49=COEPEXCH|52=20200612-19:10:15.063|56=EXECLINKS|10=041|
20200612-19:10:15.064347000 : 8=FIX.4.4|9=62|35=0|34=108|49=EXECLINKS|52=20200612-19:10:15.064|56=COEPEXCH|10=041|
20200612-19:10:16.060745000 : 8=FIX.4.4|9=62|35=0|34=110|49=COEPEXCH|52=20200612-19:10:16.060|56=EXECLINKS|10=031|
20200612-19:10:16.061139000 : 8=FIX.4.4|9=62|35=0|34=109|49=EXECLINKS|52=20200612-19:10:16.061|56=COEPEXCH|10=040|
20200612-19:10:17.056699000 : 8=FIX.4.4|9=62|35=0|34=111|49=COEPEXCH|52=20200612-19:10:17.056|56=EXECLINKS|10=038|
20200612-19:10:17.057085000 : 8=FIX.4.4|9=62|35=0|34=110|49=EXECLINKS|52=20200612-19:10:17.056|56=COEPEXCH|10=037|
20200612-19:10:18.051925000 : 8=FIX.4.4|9=62|35=0|34=112|49=COEPEXCH|52=20200612-19:10:18.051|56=EXECLINKS|10=035|
20200612-19:10:18.052283000 : 8=FIX.4.4|9=62|35=0|34=111|49=EXECLINKS|52=20200612-19:10:18.052|56=COEPEXCH|10=035|
20200612-19:10:19.045310000 : 8=FIX.4.4|9=62|35=0|34=113|49=COEPEXCH|52=20200612-19:10:19.044|56=EXECLINKS|10=039|
20200612-19:10:19.045664000 : 8=FIX.4.4|9=62|35=0|34=112|49=EXECLINKS|52=20200612-19:10:19.045|56=COEPEXCH|10=039|
20200612-19:10:20.038816000 : 8=FIX.4.4|9=62|35=0|34=114|49=COEPEXCH|52=20200612-19:10:20.038|56=EXECLINKS|10=035|
20200612-19:10:20.039183000 : 8=FIX.4.4|9=62|35=0|34=113|49=EXECLINKS|52=20200612-19:10:20.039|56=COEPEXCH|10=035|
20200612-19:10:21.031443000 : 8=FIX.4.4|9=62|35=0|34=115|49=COEPEXCH|52=20200612-19:10:21.030|56=EXECLINKS|10=029|
20200612-19:10:21.031897000 : 8=FIX.4.4|9=62|35=0|34=114|49=EXECLINKS|52=20200612-19:10:21.031|56=COEPEXCH|10=029|
20200612-19:10:22.023365000 : 8=FIX.4.4|9=62|35=0|34=116|49=COEPEXCH|52=20200612-19:10:22.022|56=EXECLINKS|10=032|
20200612-19:10:22.023729000 : 8=FIX.4.4|9=62|35=0|34=115|49=EXECLINKS|52=20200612-19:10:22.023|56=COEPEXCH|10=032|
20200612-19:10:23.014492000 : 8=FIX.4.4|9=62|35=0|34=117|49=COEPEXCH|52=20200612-19:10:23.014|56=EXECLINKS|10=035|
20200612-19:10:23.014865000 : 8=FIX.4.4|9=62|35=0|34=116|49=EXECLINKS|52=20200612-19:10:23.014|56=COEPEXCH|10=034|
20200612-19:10:24.004402000 : 8=FIX.4.4|9=62|35=0|34=118|49=COEPEXCH|52=20200612-19:10:24.003|56=EXECLINKS|10=035|
20200612-19:10:24.004759000 : 8=FIX.4.4|9=62|35=0|34=117|49=EXECLINKS|52=20200612-19:10:24.004|56=COEPEXCH|10=035|
20200612-19:10:25.846747000 : 8=FIX.4.4|9=62|35=0|34=118|49=EXECLINKS|52=20200612-19:10:25.846|56=COEPEXCH|10=051|
20200612-19:10:25.847433000 : 8=FIX.4.4|9=62|35=0|34=119|49=COEPEXCH|52=20200612-19:10:25.847|56=EXECLINKS|10=053|
20200612-19:10:26.767864000 : 8=FIX.4.4|9=62|35=0|34=119|49=EXECLINKS|52=20200612-19:10:26.767|56=COEPEXCH|10=055|
20200612-19:10:26.768537000 : 8=FIX.4.4|9=62|35=0|34=120|49=COEPEXCH|52=20200612-19:10:26.768|56=EXECLINKS|10=048|
20200612-19:10:27.688526000 : 8=FIX.4.4|9=62|35=0|34=120|49=EXECLINKS|52=20200612-19:10:27.688|56=COEPEXCH|10=050|
20200612-19:10:27.689247000 : 8=FIX.4.4|9=62|35=0|34=121|49=COEPEXCH|52=20200612-19:10:27.688|56=EXECLINKS|10=051|
20200612-19:10:28.607940000 : 8=FIX.4.4|9=62|35=0|34=121|49=EXECLINKS|52=20200612-19:10:28.607|56=COEPEXCH|10=043|
20200612-19:10:28.608622000 : 8=FIX.4.4|9=62|35=0|34=122|49=COEPEXCH|52=20200612-19:10:28.608|56=EXECLINKS|10=045|
20200612-19:10:29.526300000 : 8=FIX.4.4|9=62|35=0|34=122|49=EXECLINKS|52=20200612-19:10:29.526|56=COEPEXCH|10=045|
20200612-19:10:29.526981000 : 8=FIX.4.4|9=62|35=0|34=123|49=COEPEXCH|52=20200612-19:10:29.526|56=EXECLINKS|10=046|
20200612-19:10:30.444012000 : 8=FIX.4.4|9=62|35=0|34=123|49=EXECLINKS|52=20200612-19:10:30.443|56=COEPEXCH|10=036|
20200612-19:10:30.444683000 : 8=FIX.4.4|9=62|35=0|34=124|49=COEPEXCH|52=20200612-19:10:30.444|56=EXECLINKS|10=038|
20200612-19:10:31.360715000 : 8=FIX.4.4|9=62|35=0|34=124|49=EXECLINKS|52=20200612-19:10:31.360|56=COEPEXCH|10=036|
20200612-19:10:31.361445000 : 8=FIX.4.4|9=62|35=0|34=125|49=COEPEXCH|52=20200612-19:10:31.361|56=EXECLINKS|10=038|
20200612-19:10:32.276591000 : 8=FIX.4.4|9=62|35=0|34=125|49=EXECLINKS|52=20200612-19:10:32.275|56=COEPEXCH|10=043|
20200612-19:10:32.277632000 : 8=FIX.4.4|9=62|35=0|34=126|49=COEPEXCH|52=20200612-19:10:32.277|56=EXECLINKS|10=046|
20200612-19:10:33.191966000 : 8=FIX.4.4|9=62|35=0|34=126|49=EXECLINKS|52=20200612-19:10:33.191|56=COEPEXCH|10=042|
20200612-19:10:33.192770000 : 8=FIX.4.4|9=62|35=0|34=127|49=COEPEXCH|52=20200612-19:10:33.192|56=EXECLINKS|10=044|
20200612-19:11:38.194064000 : 8=FIX.4.4|9=73|35=A|34=127|49=EXECLINKS|52=20200612-19:11:38.193|56=COEPEXCH|98=0|108=1|10=045|
20200612-19:11:38.194532000 : 8=FIX.4.4|9=73|35=A|34=128|49=COEPEXCH|52=20200612-19:11:38.194|56=EXECLINKS|98=0|108=1|10=047|
20200612-19:11:38.259724000 : 8=FIX.4.4|9=147|35=D|34=128|49=EXECLINKS|52=20200612-19:11:38.259|56=COEPEXCH|1=EXECLINKS|11=3|38=2|40=2|44=87|54=1|55=amzn|58=Buy shares|60=20200612-22:29:00.000|10=161|
20200612-19:11:38.260678000 : 8=FIX.4.4|9=78|35=8|34=129|49=COEPEXCH|52=20200612-19:11:38.260|56=EXECLINKS|37=3|39=0|150=0|10=248|
20200612-19:11:39.193707000 : 8=FIX.4.4|9=62|35=0|34=129|49=EXECLINKS|52=20200612-19:11:39.193|56=COEPEXCH|10=054|
20200612-19:11:39.194419000 : 8=FIX.4.4|9=62|35=0|34=130|49=COEPEXCH|52=20200612-19:11:39.194|56=EXECLINKS|10=047|
20200612-19:11:40.126694000 : 8=FIX.4.4|9=62|35=0|34=130|49=EXECLINKS|52=20200612-19:11:40.126|56=COEPEXCH|10=034|
20200612-19:11:40.127384000 : 8=FIX.4.4|9=62|35=0|34=131|49=COEPEXCH|52=20200612-19:11:40.127|56=EXECLINKS|10=036|
20200612-19:11:41.058888000 : 8=FIX.4.4|9=62|35=0|34=131|49=EXECLINKS|52=20200612-19:11:41.058|56=COEPEXCH|10=040|
20200612-19:11:41.060251000 : 8=FIX.4.4|9=62|35=0|34=132|49=COEPEXCH|52=20200612-19:11:41.060|56=EXECLINKS|10=034|
20200612-19:11:42.058128000 : 8=FIX.4.4|9=62|35=0|34=133|49=COEPEXCH|52=20200612-19:11:42.057|56=EXECLINKS|10=042|
20200612-19:11:42.058493000 : 8=FIX.4.4|9=62|35=0|34=132|49=EXECLINKS|52=20200612-19:11:42.058|56=COEPEXCH|10=042|
20200612-19:11:43.055982000 : 8=FIX.4.4|9=62|35=0|34=134|49=COEPEXCH|52=20200612-19:11:43.055|56=EXECLINKS|10=042|
20200612-19:11:43.056364000 : 8=FIX.4.4|9=62|35=0|34=133|49=EXECLINKS|52=20200612-19:11:43.056|56=COEPEXCH|10=042|
20200612-19:11:44.052887000 : 8=FIX.4.4|9=62|35=0|34=135|49=COEPEXCH|52=20200612-19:11:44.052|56=EXECLINKS|10=041|
20200612-19:11:44.053250000 : 8=FIX.4.4|9=62|35=0|34=134|49=EXECLINKS|52=20200612-19:11:44.053|56=COEPEXCH|10=041|
20200612-19:11:45.049005000 : 8=FIX.4.4|9=62|35=0|34=136|49=COEPEXCH|52=20200612-19:11:45.048|56=EXECLINKS|10=048|
20200612-19:11:45.049369000 : 8=FIX.4.4|9=62|35=0|34=135|49=EXECLINKS|52=20200612-19:11:45.049|56=COEPEXCH|10=048|
20200612-19:11:46.044247000 : 8=FIX.4.4|9=62|35=0|34=137|49=COEPEXCH|52=20200612-19:11:46.043|56=EXECLINKS|10=045|
20200612-19:11:46.044608000 : 8=FIX.4.4|9=62|35=0|34=136|49=EXECLINKS|52=20200612-19:11:46.044|56=COEPEXCH|10=045|
20200612-19:11:47.038427000 : 8=FIX.4.4|9=62|35=0|34=138|49=COEPEXCH|52=20200612-19:11:47.037|56=EXECLINKS|10=050|
20200612-19:11:47.038813000 : 8=FIX.4.4|9=62|35=0|34=137|49=EXECLINKS|52=20200612-19:11:47.038|56=COEPEXCH|10=050|
20200612-19:11:48.031533000 : 8=FIX.4.4|9=62|35=0|34=139|49=COEPEXCH|52=20200612-19:11:48.031|56=EXECLINKS|10=046|
20200612-19:11:48.031897000 : 8=FIX.4.4|9=62|35=0|34=138|49=EXECLINKS|52=20200612-19:11:48.031|56=COEPEXCH|10=045|
20200612-19:11:49.024180000 : 8=FIX.4.4|9=62|35=0|34=140|49=COEPEXCH|52=20200612-19:11:49.023|56=EXECLINKS|10=040|
20200612-19:11:49.024540000 : 8=FIX.4.4|9=62|35=0|34=139|49=EXECLINKS|52=20200612-19:11:49.024|56=COEPEXCH|10=049|
20200612-19:11:50.015730000 : 8=FIX.4.4|9=62|35=0|34=141|49=COEPEXCH|52=20200612-19:11:50.015|56=EXECLINKS|10=034|
20200612-19:11:50.016394000 : 8=FIX.4.4|9=62|35=0|34=140|49=EXECLINKS|52=20200612-19:11:50.016|56=COEPEXCH|10=034|
20200612-19:11:51.006735000 : 8=FIX.4.4|9=62|35=0|34=142|49=COEPEXCH|52=20200612-19:11:51.006|56=EXECLINKS|10=036|
20200612-19:11:51.006944000 : 8=FIX.4.4|9=62|35=0|34=141|49=EXECLINKS|52=20200612-19:11:51.006|56=COEPEXCH|10=035|
20200612-19:11:52.854215000 : 8=FIX.4.4|9=62|35=0|34=142|49=EXECLINKS|52=20200612-19:11:52.853|56=COEPEXCH|10=047|
20200612-19:11:52.855058000 : 8=FIX.4.4|9=62|35=0|34=143|49=COEPEXCH|52=20200612-19:11:52.854|56=EXECLINKS|10=049|
20200612-19:11:53.778134000 : 8=FIX.4.4|9=62|35=0|34=143|49=EXECLINKS|52=20200612-19:11:53.777|56=COEPEXCH|10=054|
20200612-19:11:53.778883000 : 8=FIX.4.4|9=62|35=0|34=144|49=COEPEXCH|52=20200612-19:11:53.778|56=EXECLINKS|10=056|
20200612-19:11:54.700213000 : 8=FIX.4.4|9=62|35=0|34=144|49=EXECLINKS|52=20200612-19:11:54.700|56=COEPEXCH|10=042|
20200612-19:11:54.700978000 : 8=FIX.4.4|9=62|35=0|34=145|49=COEPEXCH|52=20200612-19:11:54.700|56=EXECLINKS|10=043|
20200612-19:11:55.622299000 : 8=FIX.4.4|9=62|35=0|34=145|49=EXECLINKS|52=20200612-19:11:55.622|56=COEPEXCH|10=047|
20200612-19:11:55.622961000 : 8=FIX.4.4|9=62|35=0|34=146|49=COEPEXCH|52=20200612-19:11:55.622|56=EXECLINKS|10=048|
20200612-19:11:56.543460000 : 8=FIX.4.4|9=62|35=0|34=146|49=EXECLINKS|52=20200612-19:11:56.543|56=COEPEXCH|10=051|
20200612-19:11:56.544553000 : 8=FIX.4.4|9=62|35=0|34=147|49=COEPEXCH|52=20200612-19:11:56.544|56=EXECLINKS|10=053|
20200612-19:11:57.464351000 : 8=FIX.4.4|9=62|35=0|34=147|49=EXECLINKS|52=20200612-19:11:57.464|56=COEPEXCH|10=055|
20200612-19:11:57.465077000 : 8=FIX.4.4|9=62|35=0|34=148|49=COEPEXCH|52=20200612-19:11:57.464|56=EXECLINKS|10=056|
20200612-19:11:58.384698000 : 8=FIX.4.4|9=62|35=0|34=148|49=EXECLINKS|52=20200612-19:11:58.383|56=COEPEXCH|10=057|
20200612-19:11:58.385524000 : 8=FIX.4.4|9=62|35=0|34=149|49=COEPEXCH|52=20200612-19:11:58.385|56=EXECLINKS|10=060|
20200612-19:11:59.303153000 : 8=FIX.4.4|9=62|35=0|34=149|49=EXECLINKS|52=20200612-19:11:59.302|56=COEPEXCH|10=050|
20200612-19:11:59.303971000 : 8=FIX.4.4|9=62|35=0|34=150|49=COEPEXCH|52=20200612-19:11:59.303|56=EXECLINKS|10=043|
20200612-19:12:00.220693000 : 8=FIX.4.4|9=62|35=0|34=150|49=EXECLINKS|52=20200612-19:12:00.220|56=COEPEXCH|10=028|
20200612-19:12:00.221431000 : 8=FIX.4.4|9=62|35=0|34=151|49=COEPEXCH|52=20200612-19:12:00.221|56=EXECLINKS|10=030|
20200612-19:12:01.137351000 : 8=FIX.4.4|9=62|35=0|34=151|49=EXECLINKS|52=20200612-19:12:01.137|56=COEPEXCH|10=037|
20200612-19:12:01.138090000 : 8=FIX.4.4|9=62|35=0|34=152|49=COEPEXCH|52=20200612-19:12:01.137|56=EXECLINKS|10=038|
20200612-19:12:02.053125000 : 8=FIX.4.4|9=62|35=0|34=152|49=EXECLINKS|52=20200612-19:12:02.052|56=COEPEXCH|10=035|
20200612-19:12:02.053871000 : 8=FIX.4.4|9=62|35=0|34=153|49=COEPEXCH|52=20200612-19:12:02.053|56=EXECLINKS|10=037|
20200612-19:12:03.036344000 : 8=FIX.4.4|9=62|35=0|34=154|49=COEPEXCH|52=20200612-19:12:03.035|56=EXECLINKS|10=039|
20200612-19:12:03.036722000 : 8=FIX.4.4|9=62|35=0|34=153|49=EXECLINKS|52=20200612-19:12:03.036|56=COEPEXCH|10=039|
20200612-19:12:04.018550000 : 8=FIX.4.4|9=62|35=0|34=155|49=COEPEXCH|52=20200612-19:12:04.018|56=EXECLINKS|10=042|
20200612-19:12:04.018936000 : 8=FIX.4.4|9=62|35=0|34=154|49=EXECLINKS|52=20200612-19:12:04.018|56=COEPEXCH|10=041|
20200612-19:12:05.844398000 : 8=FIX.4.4|9=62|35=0|34=155|49=EXECLINKS|52=20200612-19:12:05.844|56=COEPEXCH|10=050|
20200612-19:12:05.845133000 : 8=FIX.4.4|9=62|35=0|34=156|49=COEPEXCH|52=20200612-19:12:05.844|56=EXECLINKS|10=051|
20200612-19:12:06.757279000 : 8=FIX.4.4|9=62|35=0|34=156|49=EXECLINKS|52=20200612-19:12:06.757|56=COEPEXCH|10=055|
20200612-19:12:06.758017000 : 8=FIX.4.4|9=62|35=0|34=157|49=COEPEXCH|52=20200612-19:12:06.757|56=EXECLINKS|10=056|
20200612-19:12:07.669352000 : 8=FIX.4.4|9=62|35=0|34=157|49=EXECLINKS|52=20200612-19:12:07.669|56=COEPEXCH|10=059|
20200612-19:12:07.670089000 : 8=FIX.4.4|9=62|35=0|34=158|49=COEPEXCH|52=20200612-19:12:07.669|56=EXECLINKS|10=060|
20200612-19:12:08.580103000 : 8=FIX.4.4|9=62|35=0|34=158|49=EXECLINKS|52=20200612-19:12:08.579|56=COEPEXCH|10=061|
20200612-19:12:08.580985000 : 8=FIX.4.4|9=62|35=0|34=159|49=COEPEXCH|52=20200612-19:12:08.580|56=EXECLINKS|10=054|
20200612-19:12:09.490762000 : 8=FIX.4.4|9=62|35=0|34=159|49=EXECLINKS|52=20200612-19:12:09.490|56=COEPEXCH|10=055|
20200612-19:12:09.491996000 : 8=FIX.4.4|9=62|35=0|34=160|49=COEPEXCH|52=20200612-19:12:09.491|56=EXECLINKS|10=048|
20200612-19:12:10.400116000 : 8=FIX.4.4|9=62|35=0|34=160|49=EXECLINKS|52=20200612-19:12:10.399|56=COEPEXCH|10=047|
20200612-19:12:10.400847000 : 8=FIX.4.4|9=62|35=0|34=161|49=COEPEXCH|52=20200612-19:12:10.400|56=EXECLINKS|10=031|
20200612-19:12:11.308190000 : 8=FIX.4.4|9=62|35=0|34=161|49=EXECLINKS|52=20200612-19:12:11.307|56=COEPEXCH|10=038|
20200612-19:12:11.308913000 : 8=FIX.4.4|9=62|35=0|34=162|49=COEPEXCH|52=20200612-19:12:11.308|56=EXECLINKS|10=040|
20200612-19:13:02.296028000 : 8=FIX.4.4|9=73|35=A|34=162|49=EXECLINKS|52=20200612-19:13:02.295|56=COEPEXCH|98=0|108=1|10=040|
20200612-19:13:02.296503000 : 8=FIX.4.4|9=73|35=A|34=163|49=COEPEXCH|52=20200612-19:13:02.296|56=EXECLINKS|98=0|108=1|10=042|
20200612-19:13:02.367011000 : 8=FIX.4.4|9=147|35=D|34=163|49=EXECLINKS|52=20200612-19:13:02.366|56=COEPEXCH|1=EXECLINKS|11=3|38=2|40=2|44=87|54=1|55=amzn|58=Buy shares|60=20200612-22:29:00.000|10=152|
20200612-19:13:02.367410000 : 8=FIX.4.4|9=148|35=D|34=164|49=EXECLINKS|52=20200612-19:13:02.367|56=COEPEXCH|1=EXECLINKS|11=3|38=2|40=2|44=87|54=2|55=amzn|58=Sell shares|60=20200612-22:29:00.000|10=252|
20200612-19:13:02.368053000 : 8=FIX.4.4|9=78|35=8|34=164|49=COEPEXCH|52=20200612-19:13:02.367|56=EXECLINKS|37=3|39=0|150=0|10=248|
20200612-19:13:02.368340000 : 8=FIX.4.4|9=62|35=5|34=165|49=EXECLINKS|52=20200612-19:13:02.368|56=COEPEXCH|10=055|
20200612-19:13:02.368944000 : 8=FIX.4.4|9=78|35=8|34=165|49=COEPEXCH|52=20200612-19:13:02.368|56=EXECLINKS|37=3|39=0|150=0|10=250|
20200612-19:13:02.369170000 : 8=FIX.4.4|9=99|35=8|34=166|49=COEPEXCH|52=20200612-19:13:02.368|56=EXECLINKS|37=3|38=2|39=2|44=87.0|55=amzn|150=F|10=194|
20200612-19:13:02.369645000 : 8=FIX.4.4|9=99|35=8|34=167|49=COEPEXCH|52=20200612-19:13:02.369|56=EXECLINKS|37=3|38=2|39=2|44=87.0|55=amzn|150=F|10=196|
20200612-19:13:02.369765000 : 8=FIX.4.4|9=62|35=5|34=168|49=COEPEXCH|52=20200612-19:13:02.369|56=EXECLINKS|10=059|
20200612-19:14:30.134688000 : 8=FIX.4.4|9=73|35=A|34=166|49=EXECLINKS|52=20200612-19:14:30.134|56=COEPEXCH|98=0|108=1|10=038|
20200612-19:14:30.135152000 : 8=FIX.4.4|9=73|35=A|34=169|49=COEPEXCH|52=20200612-19:14:30.135|56=EXECLINKS|98=0|108=1|10=042|
20200612-19:14:30.198981000 : 8=FIX.4.4|9=147|35=D|34=167|49=EXECLINKS|52=20200612-19:14:30.198|56=COEPEXCH|1=EXECLINKS|11=1|38=2|40=2|44=87|54=1|55=amzn|58=Buy shares|60=20200612-22:29:00.000|10=159|
20200612-19:14:30.199398000 : 8=FIX.4.4|9=148|35=D|34=168|49=EXECLINKS|52=20200612-19:14:30.199|56=COEPEXCH|1=EXECLINKS|11=2|38=2|40=2|44=87|54=2|55=amzn|58=Sell shares|60=20200612-22:29:00.000|10=004|
20200612-19:14:30.200018000 : 8=FIX.4.4|9=78|35=8|34=170|49=COEPEXCH|52=20200612-19:14:30.199|56=EXECLINKS|37=1|39=0|150=0|10=248|
20200612-19:14:30.200314000 : 8=FIX.4.4|9=62|35=5|34=169|49=EXECLINKS|52=20200612-19:14:30.200|56=COEPEXCH|10=046|
20200612-19:14:30.200940000 : 8=FIX.4.4|9=78|35=8|34=171|49=COEPEXCH|52=20200612-19:14:30.200|56=EXECLINKS|37=2|39=0|150=0|10=233|
20200612-19:14:30.201164000 : 8=FIX.4.4|9=99|35=8|34=172|49=COEPEXCH|52=20200612-19:14:30.200|56=EXECLINKS|37=2|38=2|39=2|44=87.0|55=amzn|150=F|10=177|
20200612-19:14:30.201637000 : 8=FIX.4.4|9=99|35=8|34=173|49=COEPEXCH|52=20200612-19:14:30.201|56=EXECLINKS|37=1|38=2|39=2|44=87.0|55=amzn|150=F|10=178|
20200612-19:14:30.201764000 : 8=FIX.4.4|9=62|35=5|34=174|49=COEPEXCH|52=20200612-19:14:30.201|56=EXECLINKS|10=043|
20200612-19:16:22.938469000 : 8=FIX.4.4|9=73|35=A|34=170|49=EXECLINKS|52=20200612-19:16:22.938|56=COEPEXCH|98=0|108=1|10=048|
20200612-19:16:22.938975000 : 8=FIX.4.4|9=73|35=A|34=175|49=COEPEXCH|52=20200612-19:16:22.938|56=EXECLINKS|98=0|108=1|10=053|
20200612-19:16:47.057137000 : 8=FIX.4.4|9=73|35=A|34=171|49=EXECLINKS|52=20200612-19:16:47.057|56=COEPEXCH|98=0|108=1|10=048|
20200612-19:16:47.057743000 : 8=FIX.4.4|9=73|35=A|34=176|49=COEPEXCH|52=20200612-19:16:47.057|56=EXECLINKS|98=0|108=1|10=053|
20200612-19:16:47.123976000 : 8=FIX.4.4|9=147|35=D|34=172|49=EXECLINKS|52=20200612-19:16:47.123|56=COEPEXCH|1=EXECLINKS|11=1|38=2|40=2|44=87|54=1|55=amzn|58=Buy shares|60=20200612-22:29:00.000|10=153|
20200612-19:16:47.124518000 : 8=FIX.4.4|9=148|35=D|34=173|49=EXECLINKS|52=20200612-19:16:47.124|56=COEPEXCH|1=EXECLINKS|11=2|38=2|40=2|44=87|54=2|55=amzn|58=Sell shares|60=20200612-22:29:00.000|10=254|
20200612-19:16:47.125032000 : 8=FIX.4.4|9=149|35=D|34=174|49=EXECLINKS|52=20200612-19:16:47.124|56=COEPEXCH|1=EXECLINKS|11=3|38=2|40=2|44=100|54=2|55=bsnl|58=Sell shares|60=20200612-22:29:00.000|10=028|
20200612-19:16:47.125369000 : 8=FIX.4.4|9=78|35=8|34=177|49=COEPEXCH|52=20200612-19:16:47.125|56=EXECLINKS|37=1|39=0|150=0|10=254|
20200612-19:16:47.125773000 : 8=FIX.4.4|9=149|35=D|34=175|49=EXECLINKS|52=20200612-19:16:47.125|56=COEPEXCH|1=EXECLINKS|11=4|38=2|40=2|44=100|54=2|55=amzn|58=Sell shares|60=20200612-22:29:00.000|10=038|
20200612-19:16:47.126342000 : 8=FIX.4.4|9=78|35=8|34=178|49=COEPEXCH|52=20200612-19:16:47.126|56=EXECLINKS|37=2|39=0|150=0|10=001|
20200612-19:16:47.126549000 : 8=FIX.4.4|9=62|35=5|34=176|49=EXECLINKS|52=20200612-19:16:47.126|56=COEPEXCH|10=061|
20200612-19:16:47.126610000 : 8=FIX.4.4|9=99|35=8|34=179|49=COEPEXCH|52=20200612-19:16:47.126|56=EXECLINKS|37=2|38=2|39=2|44=87.0|55=amzn|150=F|10=201|
20200612-19:16:47.126774000 : 8=FIX.4.4|9=99|35=8|34=180|49=COEPEXCH|52=20200612-19:16:47.126|56=EXECLINKS|37=1|38=2|39=2|44=87.0|55=amzn|150=F|10=192|
20200612-19:16:47.128089000 : 8=FIX.4.4|9=78|35=8|34=181|49=COEPEXCH|52=20200612-19:16:47.127|56=EXECLINKS|37=4|39=0|150=0|10=254|
20200612-19:16:47.128230000 : 8=FIX.4.4|9=62|35=5|34=182|49=COEPEXCH|52=20200612-19:16:47.127|56=EXECLINKS|10=059|
20200612-19:18:31.982704000 : 8=FIX.4.4|9=73|35=A|34=177|49=EXECLINKS|52=20200612-19:18:31.982|56=COEPEXCH|98=0|108=1|10=056|
20200612-19:18:31.983068000 : 8=FIX.4.4|9=73|35=A|34=183|49=COEPEXCH|52=20200612-19:18:31.982|56=EXECLINKS|98=0|108=1|10=053|
20200612-19:18:32.050468000 : 8=FIX.4.4|9=147|35=D|34=178|49=EXECLINKS|52=20200612-19:18:32.050|56=COEPEXCH|1=EXECLINKS|11=1|38=2|40=2|44=87|54=1|55=amzn|58=Buy shares|60=20200612-22:29:00.000|10=154|
20200612-19:18:32.050876000 : 8=FIX.4.4|9=148|35=D|34=179|49=EXECLINKS|52=20200612-19:18:32.050|56=COEPEXCH|1=EXECLINKS|11=2|38=2|40=2|44=87|54=2|55=amzn|58=Sell shares|60=20200612-22:29:00.000|10=254|
20200612-19:18:32.051188000 : 8=FIX.4.4|9=149|35=D|34=180|49=EXECLINKS|52=20200612-19:18:32.051|56=COEPEXCH|1=EXECLINKS|11=3|38=2|40=2|44=100|54=2|55=bsnl|58=Sell shares|60=20200612-22:29:00.000|10=020|
20200612-19:18:32.051478000 : 8=FIX.4.4|9=149|35=D|34=181|49=EXECLINKS|52=20200612-19:18:32.051|56=COEPEXCH|1=EXECLINKS|11=4|38=2|40=2|44=100|54=2|55=bsnl|58=Sell shares|60=20200612-22:29:00.000|10=022|
20200612-19:18:32.051608000 : 8=FIX.4.4|9=78|35=8|34=184|49=COEPEXCH|52=20200612-19:18:32.051|56=EXECLINKS|37=1|39=0|150=0|10=246|
20200612-19:18:32.051936000 : 8=FIX.4.4|9=62|35=5|34=182|49=EXECLINKS|52=20200612-19:18:32.051|56=COEPEXCH|10=051|
20200612-19:18:32.052013000 : 8=FIX.4.4|9=99|35=8|34=185|49=COEPEXCH|52=20200612-19:18:32.051|56=EXECLINKS|37=2|38=2|39=2|44=87.0|55=amzn|150=F|10=191|
20200612-19:18:32.052193000 : 8=FIX.4.4|9=99|35=8|34=186|49=COEPEXCH|52=20200612-19:18:32.051|56=EXECLINKS|37=1|38=2|39=2|44=87.0|55=amzn|150=F|10=191|
20200612-19:18:32.053573000 : 8=FIX.4.4|9=78|35=8|34=187|49=COEPEXCH|52=20200612-19:18:32.052|56=EXECLINKS|37=2|39=0|150=0|10=251|
20200612-19:18:32.053708000 : 8=FIX.4.4|9=62|35=5|34=188|49=COEPEXCH|52=20200612-19:18:32.053|56=EXECLINKS|10=059|
20200612-19:19:02.198454000 : 8=FIX.4.4|9=73|35=A|34=183|49=EXECLINKS|52=20200612-19:19:02.198|56=COEPEXCH|98=0|108=1|10=051|
20200612-19:19:02.198929000 : 8=FIX.4.4|9=73|35=A|34=189|49=COEPEXCH|52=20200612-19:19:02.198|56=EXECLINKS|98=0|108=1|10=057|
20200612-19:19:02.264535000 : 8=FIX.4.4|9=147|35=D|34=184|49=EXECLINKS|52=20200612-19:19:02.264|56=COEPEXCH|1=EXECLINKS|11=1|38=2|40=2|44=87|54=1|55=amzn|58=Buy shares|60=20200612-22:29:00.000|10=156|
20200612-19:19:02.265091000 : 8=FIX.4.4|9=148|35=D|34=185|49=EXECLINKS|52=20200612-19:19:02.264|56=COEPEXCH|1=EXECLINKS|11=2|38=2|40=2|44=87|54=2|55=amzn|58=Sell shares|60=20200612-22:29:00.000|10=000|
20200612-19:19:02.265589000 : 8=FIX.4.4|9=148|35=D|34=186|49=EXECLINKS|52=20200612-19:19:02.265|56=COEPEXCH|1=EXECLINKS|11=3|38=2|40=2|44=100|54=1|55=bsnl|58=Buy shares|60=20200612-22:29:00.000|10=189|
20200612-19:19:02.266085000 : 8=FIX.4.4|9=149|35=D|34=187|49=EXECLINKS|52=20200612-19:19:02.265|56=COEPEXCH|1=EXECLINKS|11=4|38=2|40=2|44=100|54=2|55=bsnl|58=Sell shares|60=20200612-22:29:00.000|10=033|
20200612-19:19:02.266124000 : 8=FIX.4.4|9=78|35=8|34=190|49=COEPEXCH|52=20200612-19:19:02.265|56=EXECLINKS|37=1|39=0|150=0|10=248|
20200612-19:19:02.266370000 : 8=FIX.4.4|9=62|35=5|34=188|49=EXECLINKS|52=20200612-19:19:02.266|56=COEPEXCH|10=063|
20200612-19:19:02.266415000 : 8=FIX.4.4|9=99|35=8|34=191|49=COEPEXCH|52=20200612-19:19:02.266|56=EXECLINKS|37=2|38=2|39=2|44=87.0|55=amzn|150=F|10=194|
20200612-19:19:02.266556000 : 8=FIX.4.4|9=99|35=8|34=192|49=COEPEXCH|52=20200612-19:19:02.266|56=EXECLINKS|37=1|38=2|39=2|44=87.0|55=amzn|150=F|10=194|
20200612-19:19:02.267284000 : 8=FIX.4.4|9=78|35=8|34=193|49=COEPEXCH|52=20200612-19:19:02.267|56=EXECLINKS|37=2|39=0|150=0|10=254|
20200612-19:19:02.268234000 : 8=FIX.4.4|9=62|35=5|34=194|49=COEPEXCH|52=20200612-19:19:02.268|56=EXECLINKS|10=062|
20200612-19:20:20.065094000 : 8=FIX.4.4|9=73|35=A|34=189|49=EXECLINKS|52=20200612-19:20:20.064|56=COEPEXCH|98=0|108=1|10=041|
20200612-19:20:20.065707000 : 8=FIX.4.4|9=73|35=A|34=195|49=COEPEXCH|52=20200612-19:20:20.065|56=EXECLINKS|98=0|108=1|10=039|
20200612-19:20:20.130609000 : 8=FIX.4.4|9=148|35=D|34=190|49=EXECLINKS|52=20200612-19:20:20.130|56=COEPEXCH|1=EXECLINKS|11=3|38=2|40=2|44=100|54=1|55=bsnl|58=Buy shares|60=20200612-22:29:00.000|10=167|
20200612-19:20:20.131177000 : 8=FIX.4.4|9=149|35=D|34=191|49=EXECLINKS|52=20200612-19:20:20.131|56=COEPEXCH|1=EXECLINKS|11=4|38=2|40=2|44=100|54=2|55=bsnl|58=Sell shares|60=20200612-22:29:00.000|10=012|
20200612-19:20:21.065253000 : 8=FIX.4.4|9=62|35=5|34=192|49=EXECLINKS|52=20200612-19:20:21.065|56=COEPEXCH|10=048|
20200612-19:20:21.065869000 : 8=FIX.4.4|9=62|35=5|34=196|49=COEPEXCH|52=20200612-19:20:21.065|56=EXECLINKS|10=052|
20200612-19:20:59.367170000 : 8=FIX.4.4|9=73|35=A|34=193|49=EXECLINKS|52=20200612-19:20:59.367|56=COEPEXCH|98=0|108=1|10=054|
20200612-19:20:59.367555000 : 8=FIX.4.4|9=73|35=A|34=197|49=COEPEXCH|52=20200612-19:20:59.367|56=EXECLINKS|98=0|108=1|10=058|
20200612-19:21:20.407516000 : 8=FIX.4.4|9=73|35=A|34=194|49=EXECLINKS|52=20200612-19:21:20.407|56=COEPEXCH|98=0|108=1|10=039|
20200612-19:21:20.408102000 : 8=FIX.4.4|9=73|35=A|34=198|49=COEPEXCH|52=20200612-19:21:20.407|56=EXECLINKS|98=0|108=1|10=043|
20200612-19:21:20.476224000 : 8=FIX.4.4|9=147|35=D|34=195|49=EXECLINKS|52=20200612-19:21:20.476|56=COEPEXCH|1=EXECLINKS|11=1|38=2|40=2|44=87|54=1|55=amzn|58=Buy shares|60=20200612-22:29:00.000|10=156|
20200612-19:21:20.476779000 : 8=FIX.4.4|9=148|35=D|34=196|49=EXECLINKS|52=20200612-19:21:20.476|56=COEPEXCH|1=EXECLINKS|11=2|38=2|40=2|44=87|54=2|55=amzn|58=Sell shares|60=20200612-22:29:00.000|10=000|
20200612-19:21:20.477265000 : 8=FIX.4.4|9=78|35=8|34=199|49=COEPEXCH|52=20200612-19:21:20.477|56=EXECLINKS|37=1|39=0|150=0|10=255|
20200612-19:21:20.477545000 : 8=FIX.4.4|9=62|35=5|34=197|49=EXECLINKS|52=20200612-19:21:20.477|56=COEPEXCH|10=060|
20200612-19:21:20.478381000 : 8=FIX.4.4|9=78|35=8|34=200|49=COEPEXCH|52=20200612-19:21:20.478|56=EXECLINKS|37=2|39=0|150=0|10=240|
20200612-19:21:20.478707000 : 8=FIX.4.4|9=99|35=8|34=201|49=COEPEXCH|52=20200612-19:21:20.478|56=EXECLINKS|37=2|38=2|39=2|44=87.0|55=amzn|150=F|10=184|
20200612-19:21:20.479274000 : 8=FIX.4.4|9=99|35=8|34=202|49=COEPEXCH|52=20200612-19:21:20.478|56=EXECLINKS|37=1|38=2|39=2|44=87.0|55=amzn|150=F|10=184|
20200612-19:21:20.479412000 : 8=FIX.4.4|9=62|35=5|34=203|49=COEPEXCH|52=20200612-19:21:20.479|56=EXECLINKS|10=050|
20200612-19:21:58.549320000 : 8=FIX.4.4|9=73|35=A|34=198|49=EXECLINKS|52=20200612-19:21:58.549|56=COEPEXCH|98=0|108=1|10=061|
20200612-19:21:58.549689000 : 8=FIX.4.4|9=73|35=A|34=204|49=COEPEXCH|52=20200612-19:21:58.549|56=EXECLINKS|98=0|108=1|10=049|
20200612-19:21:58.618702000 : 8=FIX.4.4|9=147|35=D|34=199|49=EXECLINKS|52=20200612-19:21:58.618|56=COEPEXCH|1=EXECLINKS|11=1|38=2|40=2|44=87|54=1|55=amzn|58=Buy shares|60=20200612-22:29:00.000|10=169|
20200612-19:21:58.619131000 : 8=FIX.4.4|9=148|35=D|34=200|49=EXECLINKS|52=20200612-19:21:58.618|56=COEPEXCH|1=EXECLINKS|11=2|38=3|40=2|44=87|54=2|55=amzn|58=Sell shares|60=20200612-22:29:00.000|10=252|
20200612-19:21:58.619870000 : 8=FIX.4.4|9=78|35=8|34=205|49=COEPEXCH|52=20200612-19:21:58.619|56=EXECLINKS|37=1|39=0|150=0|10=252|
20200612-19:21:58.620171000 : 8=FIX.4.4|9=62|35=5|34=201|49=EXECLINKS|52=20200612-19:21:58.620|56=COEPEXCH|10=047|
20200612-19:21:58.620248000 : 8=FIX.4.4|9=99|35=8|34=206|49=COEPEXCH|52=20200612-19:21:58.619|56=EXECLINKS|37=2|38=2|39=2|44=87.0|55=amzn|150=F|10=197|
20200612-19:21:58.620426000 : 8=FIX.4.4|9=99|35=8|34=207|49=COEPEXCH|52=20200612-19:21:58.620|56=EXECLINKS|37=1|38=2|39=2|44=87.0|55=amzn|150=F|10=189|
20200612-19:21:58.621257000 : 8=FIX.4.4|9=78|35=8|34=208|49=COEPEXCH|52=20200612-19:21:58.620|56=EXECLINKS|37=2|39=0|150=0|10=248|
20200612-19:21:58.621389000 : 8=FIX.4.4|9=62|35=5|34=209|49=COEPEXCH|52=20200612-19:21:58.621|56=EXECLINKS|10=056|
20200612-19:27:02.456941000 : 8=FIX.4.4|9=73|35=A|34=202|49=EXECLINKS|52=20200612-19:27:02.456|56=COEPEXCH|98=0|108=1|10=039|
20200612-19:27:02.457446000 : 8=FIX.4.4|9=73|35=A|34=210|49=COEPEXCH|52=20200612-19:27:02.457|56=EXECLINKS|98=0|108=1|10=039|
20200612-19:27:02.535881000 : 8=FIX.4.4|9=147|35=D|34=203|49=EXECLINKS|52=20200612-19:27:02.535|56=COEPEXCH|1=EXECLINKS|11=1|38=2|40=2|44=87|54=1|55=amzn|58=Buy shares|60=20200612-22:29:00.000|10=148|
20200612-19:27:02.536292000 : 8=FIX.4.4|9=148|35=D|34=204|49=EXECLINKS|52=20200612-19:27:02.536|56=COEPEXCH|1=EXECLINKS|11=2|38=2|40=2|44=87|54=2|55=amzn|58=Sell shares|60=20200612-22:29:00.000|10=249|
20200612-19:27:02.536909000 : 8=FIX.4.4|9=78|35=8|34=211|49=COEPEXCH|52=20200612-19:27:02.536|56=EXECLINKS|37=1|39=0|150=0|10=242|
20200612-19:28:13.870694000 : 8=FIX.4.4|9=73|35=A|34=205|49=EXECLINKS|52=20200612-19:28:13.870|56=COEPEXCH|98=0|108=1|10=045|
20200612-19:28:13.871252000 : 8=FIX.4.4|9=73|35=A|34=215|49=COEPEXCH|52=20200612-19:28:13.871|56=EXECLINKS|98=0|108=1|10=047|
20200612-19:28:13.871504000 : 8=FIX.4.4|9=73|35=2|34=206|49=EXECLINKS|52=20200612-19:28:13.871|56=COEPEXCH|7=211|16=0|10=023|
20200612-19:28:13.871946000 : 8=FIX.4.4|9=109|35=8|34=211|43=Y|49=COEPEXCH|52=20200612-19:28:13.871|56=EXECLINKS|122=20200612-19:27:02.536|37=1|39=0|150=0|10=034|
20200612-19:28:13.915877000 : 8=FIX.4.4|9=109|35=8|34=212|43=Y|49=COEPEXCH|52=20200612-19:28:13.871|56=EXECLINKS|122=20200612-19:27:02.537|37=2|39=0|150=0|10=037|
20200612-19:28:13.916231000 : 8=FIX.4.4|9=130|35=8|34=213|43=Y|49=COEPEXCH|52=20200612-19:28:13.872|56=EXECLINKS|122=20200612-19:27:02.538|37=2|38=2|39=2|44=87.0|55=amzn|150=F|10=230|
20200612-19:29:01.763513000 : 8=FIX.4.4|9=73|35=A|34=207|49=EXECLINKS|52=20200612-19:29:01.763|56=COEPEXCH|98=0|108=1|10=046|
20200612-19:29:01.764151000 : 8=FIX.4.4|9=73|35=A|34=216|49=COEPEXCH|52=20200612-19:29:01.763|56=EXECLINKS|98=0|108=1|10=046|
20200612-19:29:01.764326000 : 8=FIX.4.4|9=73|35=2|34=208|49=EXECLINKS|52=20200612-19:29:01.764|56=COEPEXCH|7=213|16=0|10=026|
20200612-19:29:01.764716000 : 8=FIX.4.4|9=130|35=8|34=213|43=Y|49=COEPEXCH|52=20200612-19:29:01.764|56=EXECLINKS|122=20200612-19:27:02.538|37=2|38=2|39=2|44=87.0|55=amzn|150=F|10=228|
20200612-19:29:01.807869000 : 8=FIX.4.4|9=130|35=8|34=214|43=Y|49=COEPEXCH|52=20200612-19:29:01.764|56=EXECLINKS|122=20200612-19:27:02.538|37=1|38=2|39=2|44=87.0|55=amzn|150=F|10=228|
20200612-19:29:01.808183000 : 8=FIX.4.4|9=106|35=4|34=215|43=Y|49=COEPEXCH|52=20200612-19:29:01.764|56=EXECLINKS|122=20200612-19:29:01.764|36=217|123=Y|10=217|
20200612-19:29:01.832876000 : 8=FIX.4.4|9=147|35=D|34=209|49=EXECLINKS|52=20200612-19:29:01.832|56=COEPEXCH|1=EXECLINKS|11=1|38=2|40=2|44=87|54=1|55=amzn|58=Buy shares|60=20200612-22:29:00.000|10=155|
20200612-19:29:01.833283000 : 8=FIX.4.4|9=148|35=D|34=210|49=EXECLINKS|52=20200612-19:29:01.833|56=COEPEXCH|1=EXECLINKS|11=2|38=2|40=2|44=87|54=2|55=amzn|58=Sell shares|60=20200612-22:29:00.000|10=247|
20200612-19:29:01.833937000 : 8=FIX.4.4|9=78|35=8|34=217|49=COEPEXCH|52=20200612-19:29:01.833|56=EXECLINKS|37=1|39=0|150=0|10=249|
20200612-19:29:01.834353000 : 8=FIX.4.4|9=62|35=5|34=211|49=EXECLINKS|52=20200612-19:29:01.834|56=COEPEXCH|10=051|
20200612-19:29:01.834997000 : 8=FIX.4.4|9=78|35=8|34=218|49=COEPEXCH|52=20200612-19:29:01.834|56=EXECLINKS|37=2|39=0|150=0|10=252|
20200612-19:29:01.835306000 : 8=FIX.4.4|9=99|35=8|34=219|49=COEPEXCH|52=20200612-19:29:01.835|56=EXECLINKS|37=2|38=2|39=2|44=87.0|55=amzn|150=F|10=197|
20200612-19:29:01.835956000 : 8=FIX.4.4|9=99|35=8|34=220|49=COEPEXCH|52=20200612-19:29:01.835|56=EXECLINKS|37=1|38=2|39=2|44=87.0|55=amzn|150=F|10=188|
20200612-19:29:01.836199000 : 8=FIX.4.4|9=62|35=5|34=221|49=COEPEXCH|52=20200612-19:29:01.835|56=EXECLINKS|10=053|
20200612-19:30:16.440208000 : 8=FIX.4.4|9=73|35=A|34=212|49=EXECLINKS|52=20200612-19:30:16.440|56=COEPEXCH|98=0|108=1|10=032|
20200612-19:30:16.440686000 : 8=FIX.4.4|9=73|35=A|34=222|49=COEPEXCH|52=20200612-19:30:16.440|56=EXECLINKS|98=0|108=1|10=033|
20200612-19:30:16.520985000 : 8=FIX.4.4|9=147|35=D|34=213|49=EXECLINKS|52=20200612-19:30:16.520|56=COEPEXCH|1=EXECLINKS|11=1|38=2|40=2|44=87|54=1|55=amzn|58=Buy shares|60=20200612-22:29:00.000|10=142|
20200612-19:30:16.521433000 : 8=FIX.4.4|9=148|35=D|34=214|49=EXECLINKS|52=20200612-19:30:16.521|56=COEPEXCH|1=EXECLINKS|11=2|38=1|40=2|44=87|54=2|55=amzn|58=Sell shares|60=20200612-22:29:00.000|10=242|
20200612-19:30:16.522024000 : 8=FIX.4.4|9=78|35=8|34=223|49=COEPEXCH|52=20200612-19:30:16.521|56=EXECLINKS|37=1|39=0|150=0|10=238|
20200612-19:30:16.522475000 : 8=FIX.4.4|9=62|35=5|34=215|49=EXECLINKS|52=20200612-19:30:16.522|56=COEPEXCH|10=047|
20200612-19:30:16.522986000 : 8=FIX.4.4|9=78|35=8|34=224|49=COEPEXCH|52=20200612-19:30:16.522|56=EXECLINKS|37=2|39=0|150=0|10=241|
20200612-19:30:16.523306000 : 8=FIX.4.4|9=99|35=8|34=225|49=COEPEXCH|52=20200612-19:30:16.523|56=EXECLINKS|37=2|38=1|39=2|44=87.0|55=amzn|150=F|10=185|
20200612-19:30:16.523812000 : 8=FIX.4.4|9=99|35=8|34=226|49=COEPEXCH|52=20200612-19:30:16.523|56=EXECLINKS|37=1|38=1|39=1|44=87.0|55=amzn|150=F|10=184|
20200612-19:30:16.524015000 : 8=FIX.4.4|9=62|35=5|34=227|49=COEPEXCH|52=20200612-19:30:16.523|56=EXECLINKS|10=051|
20200612-19:31:57.632363000 : 8=FIX.4.4|9=73|35=A|34=216|49=EXECLINKS|52=20200612-19:31:57.632|56=COEPEXCH|98=0|108=1|10=045|
20200612-19:31:57.632848000 : 8=FIX.4.4|9=73|35=A|34=228|49=COEPEXCH|52=20200612-19:31:57.632|56=EXECLINKS|98=0|108=1|10=048|
20200612-19:31:57.698475000 : 8=FIX.4.4|9=147|35=D|34=217|49=EXECLINKS|52=20200612-19:31:57.698|56=COEPEXCH|1=EXECLINKS|11=1|38=2|40=2|44=87|54=1|55=amzn|58=Buy shares|60=20200612-22:29:00.000|10=168|
20200612-19:31:57.698928000 : 8=FIX.4.4|9=148|35=D|34=218|49=EXECLINKS|52=20200612-19:31:57.698|56=COEPEXCH|1=EXECLINKS|11=2|38=1|40=2|44=87|54=2|55=amzn|58=Sell shares|60=20200612-22:29:00.000|10=011|
20200612-19:31:57.699252000 : 8=FIX.4.4|9=148|35=D|34=219|49=EXECLINKS|52=20200612-19:31:57.699|56=COEPEXCH|1=EXECLINKS|11=2|38=1|40=2|44=87|54=2|55=amzn|58=Sell shares|60=20200612-22:29:00.000|10=013|
20200612-19:31:57.699533000 : 8=FIX.4.4|9=78|35=8|34=229|49=COEPEXCH|52=20200612-19:31:57.699|56=EXECLINKS|37=1|39=0|150=0|10=010|
20200612-19:31:57.700043000 : 8=FIX.4.4|9=62|35=5|34=220|49=EXECLINKS|52=20200612-19:31:57.699|56=COEPEXCH|10=064|
20200612-19:31:57.700590000 : 8=FIX.4.4|9=78|35=8|34=230|49=COEPEXCH|52=20200612-19:31:57.700|56=EXECLINKS|37=2|39=0|150=0|10=242|
20200612-19:31:57.700938000 : 8=FIX.4.4|9=99|35=8|34=231|49=COEPEXCH|52=20200612-19:31:57.700|56=EXECLINKS|37=2|38=1|39=2|44=87.0|55=amzn|150=F|10=185|
20200612-19:31:57.702524000 : 8=FIX.4.4|9=99|35=8|34=232|49=COEPEXCH|52=20200612-19:31:57.700|56=EXECLINKS|37=1|38=1|39=1|44=87.0|55=amzn|150=F|10=184|
20200612-19:31:57.702806000 : 8=FIX.4.4|9=78|35=8|34=233|49=COEPEXCH|52=20200612-19:31:57.701|56=EXECLINKS|37=2|39=0|150=0|10=246|
20200612-19:31:57.703011000 : 8=FIX.4.4|9=99|35=8|34=234|49=COEPEXCH|52=20200612-19:31:57.701|56=EXECLINKS|37=2|38=1|39=2|44=87.0|55=amzn|150=F|10=189|
20200612-19:31:57.703210000 : 8=FIX.4.4|9=99|35=8|34=235|49=COEPEXCH|52=20200612-19:31:57.702|56=EXECLINKS|37=1|38=1|39=2|44=87.0|55=amzn|150=F|10=190|
20200612-19:31:57.703407000 : 8=FIX.4.4|9=62|35=5|34=236|49=COEPEXCH|52=20200612-19:31:57.702|56=EXECLINKS|10=056|
20200612-19:32:36.463130000 : 8=FIX.4.4|9=73|35=A|34=221|49=EXECLINKS|52=20200612-19:32:36.463|56=COEPEXCH|98=0|108=1|10=041|
20200612-19:32:36.463600000 : 8=FIX.4.4|9=73|35=A|34=237|49=COEPEXCH|52=20200612-19:32:36.463|56=EXECLINKS|98=0|108=1|10=048|
20200612-19:32:36.529881000 : 8=FIX.4.4|9=147|35=D|34=222|49=EXECLINKS|52=20200612-19:32:36.529|56=COEPEXCH|1=EXECLINKS|11=1|38=2|40=2|44=87|54=1|55=amzn|58=Buy shares|60=20200612-22:29:00.000|10=155|
20200612-19:32:36.530306000 : 8=FIX.4.4|9=148|35=D|34=223|49=EXECLINKS|52=20200612-19:32:36.530|56=COEPEXCH|1=EXECLINKS|11=2|38=1|40=2|44=87|54=2|55=amzn|58=Sell shares|60=20200612-22:29:00.000|10=246|
20200612-19:32:36.530675000 : 8=FIX.4.4|9=148|35=D|34=224|49=EXECLINKS|52=20200612-19:32:36.530|56=COEPEXCH|1=EXECLINKS|11=3|38=1|40=2|44=87|54=2|55=amzn|58=Sell shares|60=20200612-22:29:00.000|10=248|
20200612-19:32:36.530826000 : 8=FIX.4.4|9=78|35=8|34=238|49=COEPEXCH|52=20200612-19:32:36.530|56=EXECLINKS|37=1|39=0|150=0|10=248|
20200612-19:32:36.531282000 : 8=FIX.4.4|9=62|35=5|34=225|49=EXECLINKS|52=20200612-19:32:36.531|56=COEPEXCH|10=052|
20200612-19:32:36.531861000 : 8=FIX.4.4|9=78|35=8|34=239|49=COEPEXCH|52=20200612-19:32:36.531|56=EXECLINKS|37=2|39=0|150=0|10=251|
20200612-19:32:36.532197000 : 8=FIX.4.4|9=99|35=8|34=240|49=COEPEXCH|52=20200612-19:32:36.531|56=EXECLINKS|37=2|38=1|39=2|44=87.0|55=amzn|150=F|10=185|
20200612-19:32:36.533588000 : 8=FIX.4.4|9=99|35=8|34=241|49=COEPEXCH|52=20200612-19:32:36.532|56=EXECLINKS|37=1|38=1|39=1|44=87.0|55=amzn|150=F|10=185|
20200612-19:32:36.533824000 : 8=FIX.4.4|9=78|35=8|34=242|49=COEPEXCH|52=20200612-19:32:36.532|56=EXECLINKS|37=3|39=0|150=0|10=247|
20200612-19:32:36.533969000 : 8=FIX.4.4|9=99|35=8|34=243|49=COEPEXCH|52=20200612-19:32:36.533|56=EXECLINKS|37=3|38=1|39=2|44=87.0|55=amzn|150=F|10=191|
20200612-19:32:36.534106000 : 8=FIX.4.4|9=99|35=8|34=244|49=COEPEXCH|52=20200612-19:32:36.533|56=EXECLINKS|37=1|38=1|39=2|44=87.0|55=amzn|150=F|10=190|
20200612-19:32:36.534237000 : 8=FIX.4.4|9=62|35=5|34=245|49=COEPEXCH|52=20200612-19:32:36.533|56=EXECLINKS|10=056|
20200612-19:34:15.428634000 : 8=FIX.4.4|9=73|35=A|34=226|49=EXECLINKS|52=20200612-19:34:15.428|56=COEPEXCH|98=0|108=1|10=046|
20200612-19:34:26.345591000 : 8=FIX.4.4|9=73|35=A|34=232|49=EXECLINKS|52=20200612-19:34:26.345|56=COEPEXCH|98=0|108=1|10=043|
20200612-19:34:26.346233000 : 8=FIX.4.4|9=73|35=A|34=246|49=COEPEXCH|52=20200612-19:34:26.346|56=EXECLINKS|98=0|108=1|10=049|
20200612-19:34:26.346417000 : 8=FIX.4.4|9=73|35=2|34=247|49=COEPEXCH|52=20200612-19:34:26.346|56=EXECLINKS|7=226|16=0|10=032|
20200612-19:34:26.346702000 : 8=FIX.4.4|9=106|35=4|34=226|43=Y|49=EXECLINKS|52=20200612-19:34:26.346|56=COEPEXCH|122=20200612-19:34:26.346|36=227|123=Y|10=218|
20200612-19:34:26.346760000 : 8=FIX.4.4|9=178|35=D|34=227|43=Y|49=EXECLINKS|52=20200612-19:34:26.346|56=COEPEXCH|122=20200612-19:34:15.492|1=EXECLINKS|11=1|38=2|40=2|44=87|54=1|55=amzn|58=Buy shares|60=20200612-22:29:00.000|10=165|
20200612-19:34:26.346875000 : 8=FIX.4.4|9=179|35=D|34=228|43=Y|49=EXECLINKS|52=20200612-19:34:26.346|56=COEPEXCH|122=20200612-19:34:15.492|1=EXECLINKS|11=2|38=1|40=2|44=87|54=2|55=amzn|58=Sell shares|60=20200612-22:29:00.000|10=008|
20200612-19:34:26.347017000 : 8=FIX.4.4|9=179|35=D|34=229|43=Y|49=EXECLINKS|52=20200612-19:34:26.346|56=COEPEXCH|122=20200612-19:34:15.492|1=EXECLINKS|11=3|38=1|40=2|44=87|54=2|55=amzn|58=Sell shares|60=20200612-22:29:00.000|10=010|
20200612-19:34:26.347108000 : 8=FIX.4.4|9=178|35=D|34=230|43=Y|49=EXECLINKS|52=20200612-19:34:26.347|56=COEPEXCH|122=20200612-19:34:15.493|1=EXECLINKS|11=4|38=3|40=2|44=99|54=1|55=bsnl|58=Buy shares|60=20200612-22:29:00.000|10=161|
20200612-19:34:26.347193000 : 8=FIX.4.4|9=179|35=D|34=231|43=Y|49=EXECLINKS|52=20200612-19:34:26.347|56=COEPEXCH|122=20200612-19:34:15.493|1=EXECLINKS|11=5|38=2|40=2|44=99|54=2|55=bsnl|58=Sell shares|60=20200612-22:29:00.000|10=004|
20200612-19:34:26.347245000 : 8=FIX.4.4|9=106|35=4|34=232|43=Y|49=EXECLINKS|52=20200612-19:34:26.347|56=COEPEXCH|122=20200612-19:34:26.347|36=233|123=Y|10=214|
20200612-19:34:26.389128000 : 8=FIX.4.4|9=78|35=8|34=248|49=COEPEXCH|52=20200612-19:34:26.388|56=EXECLINKS|37=1|39=0|150=0|10=005|
20200612-19:34:26.415158000 : 8=FIX.4.4|9=147|35=D|34=233|49=EXECLINKS|52=20200612-19:34:26.415|56=COEPEXCH|1=EXECLINKS|11=1|38=2|40=2|44=87|54=1|55=amzn|58=Buy shares|60=20200612-22:29:00.000|10=152|
20200612-19:34:26.415298000 : 8=FIX.4.4|9=78|35=8|34=249|49=COEPEXCH|52=20200612-19:34:26.390|56=EXECLINKS|37=2|39=0|150=0|10=000|
20200612-19:34:26.415987000 : 8=FIX.4.4|9=99|35=8|34=250|49=COEPEXCH|52=20200612-19:34:26.390|56=EXECLINKS|37=2|38=1|39=2|44=87.0|55=amzn|150=F|10=190|
20200612-19:34:26.416571000 : 8=FIX.4.4|9=99|35=8|34=251|49=COEPEXCH|52=20200612-19:34:26.390|56=EXECLINKS|37=1|38=1|39=1|44=87.0|55=amzn|150=F|10=189|
20200612-19:34:26.416658000 : 8=FIX.4.4|9=148|35=D|34=234|49=EXECLINKS|52=20200612-19:34:26.416|56=COEPEXCH|1=EXECLINKS|11=2|38=1|40=2|44=87|54=2|55=amzn|58=Sell shares|60=20200612-22:29:00.000|10=252|
20200612-19:34:26.417370000 : 8=FIX.4.4|9=78|35=8|34=252|49=COEPEXCH|52=20200612-19:34:26.391|56=EXECLINKS|37=3|39=0|150=0|10=252|
20200612-19:34:26.417765000 : 8=FIX.4.4|9=99|35=8|34=253|49=COEPEXCH|52=20200612-19:34:26.391|56=EXECLINKS|37=3|38=1|39=2|44=87.0|55=amzn|150=F|10=195|
20200612-19:34:26.417974000 : 8=FIX.4.4|9=99|35=8|34=254|49=COEPEXCH|52=20200612-19:34:26.392|56=EXECLINKS|37=1|38=1|39=2|44=87.0|55=amzn|150=F|10=195|
20200612-19:34:26.418250000 : 8=FIX.4.4|9=78|35=8|34=255|49=COEPEXCH|52=20200612-19:34:26.416|56=EXECLINKS|37=1|39=0|150=0|10=251|
20200612-19:34:26.418695000 : 8=FIX.4.4|9=148|35=D|34=235|49=EXECLINKS|52=20200612-19:34:26.418|56=COEPEXCH|1=EXECLINKS|11=3|38=1|40=2|44=87|54=2|55=amzn|58=Sell shares|60=20200612-22:29:00.000|10=000|
20200612-19:34:26.418757000 : 8=FIX.4.4|9=99|35=8|34=256|49=COEPEXCH|52=20200612-19:34:26.416|56=EXECLINKS|37=3|38=1|39=2|44=87.0|55=amzn|150=F|10=196|
20200612-19:34:26.419427000 : 8=FIX.4.4|9=99|35=8|34=257|49=COEPEXCH|52=20200612-19:34:26.416|56=EXECLINKS|37=1|38=1|39=1|44=87.0|55=amzn|150=F|10=194|
20200612-19:34:26.419505000 : 8=FIX.4.4|9=147|35=D|34=236|49=EXECLINKS|52=20200612-19:34:26.419|56=COEPEXCH|1=EXECLINKS|11=4|38=3|40=2|44=99|54=1|55=bsnl|58=Buy shares|60=20200612-22:29:00.000|10=159|
20200612-19:34:26.420350000 : 8=FIX.4.4|9=78|35=8|34=258|49=COEPEXCH|52=20200612-19:34:26.417|56=EXECLINKS|37=2|39=0|150=0|10=000|
20200612-19:34:26.420434000 : 8=FIX.4.4|9=148|35=D|34=237|49=EXECLINKS|52=20200612-19:34:26.420|56=COEPEXCH|1=EXECLINKS|11=5|38=2|40=2|44=99|54=2|55=bsnl|58=Sell shares|60=20200612-22:29:00.000|10=250|
20200612-19:34:26.420811000 : 8=FIX.4.4|9=62|35=5|34=238|49=EXECLINKS|52=20200612-19:34:26.420|56=COEPEXCH|10=054|
20200612-19:34:26.420832000 : 8=FIX.4.4|9=99|35=8|34=259|49=COEPEXCH|52=20200612-19:34:26.418|56=EXECLINKS|37=2|38=1|39=2|44=87.0|55=amzn|150=F|10=200|
20200612-19:34:26.421006000 : 8=FIX.4.4|9=99|35=8|34=260|49=COEPEXCH|52=20200612-19:34:26.418|56=EXECLINKS|37=1|38=1|39=2|44=87.0|55=amzn|150=F|10=191|
20200612-19:34:26.421180000 : 8=FIX.4.4|9=78|35=8|34=261|49=COEPEXCH|52=20200612-19:34:26.419|56=EXECLINKS|37=3|39=0|150=0|10=253|
20200612-19:34:26.464580000 : 8=FIX.4.4|9=62|35=5|34=262|49=COEPEXCH|52=20200612-19:34:26.464|56=EXECLINKS|10=059|
20200612-19:39:09.141798000 : 8=FIX.4.4|9=73|35=A|34=239|49=EXECLINKS|52=20200612-19:39:09.141|56=COEPEXCH|98=0|108=1|10=050|
20200612-19:39:09.142456000 : 8=FIX.4.4|9=73|35=A|34=263|49=COEPEXCH|52=20200612-19:39:09.142|56=EXECLINKS|98=0|108=1|10=048|
20200612-19:39:29.582636000 : 8=FIX.4.4|9=73|35=A|34=240|49=EXECLINKS|52=20200612-19:39:29.582|56=COEPEXCH|98=0|108=1|10=053|
20200612-19:39:29.582996000 : 8=FIX.4.4|9=73|35=A|34=264|49=COEPEXCH|52=20200612-19:39:29.582|56=EXECLINKS|98=0|108=1|10=059|
20200612-19:39:29.646967000 : 8=FIX.4.4|9=147|35=D|34=241|49=EXECLINKS|52=20200612-19:39:29.646|56=COEPEXCH|1=EXECLINKS|11=1|38=2|40=2|44=87|54=1|55=amzn|58=Buy shares|60=20200612-22:29:00.000|10=165|
20200612-19:39:29.647397000 : 8=FIX.4.4|9=148|35=D|34=242|49=EXECLINKS|52=20200612-19:39:29.647|56=COEPEXCH|1=EXECLINKS|11=2|38=1|40=2|44=87|54=2|55=amzn|58=Sell shares|60=20200612-22:29:00.000|10=009|
20200612-19:39:29.647760000 : 8=FIX.4.4|9=148|35=D|34=243|49=EXECLINKS|52=20200612-19:39:29.647|56=COEPEXCH|1=EXECLINKS|11=3|38=1|40=2|44=87|54=2|55=amzn|58=Sell shares|60=20200612-22:29:00.000|10=011|
20200612-19:39:29.648094000 : 8=FIX.4.4|9=78|35=8|34=265|49=COEPEXCH|52=20200612-19:39:29.647|56=EXECLINKS|37=1|39=0|150=0|10=010|
20200612-19:39:29.648545000 : 8=FIX.4.4|9=62|35=5|34=244|49=EXECLINKS|52=20200612-19:39:29.648|56=COEPEXCH|10=071|
20200612-19:39:29.649111000 : 8=FIX.4.4|9=78|35=8|34=266|49=COEPEXCH|52=20200612-19:39:29.648|56=EXECLINKS|37=2|39=0|150=0|10=013|
20200612-19:39:29.649444000 : 8=FIX.4.4|9=99|35=8|34=267|49=COEPEXCH|52=20200612-19:39:29.649|56=EXECLINKS|37=2|38=1|39=2|44=87.0|55=amzn|150=F|10=213|
20200612-19:39:29.650817000 : 8=FIX.4.4|9=99|35=8|34=268|49=COEPEXCH|52=20200612-19:39:29.649|56=EXECLINKS|37=1|38=1|39=1|44=87.0|55=amzn|150=F|10=212|
20200612-19:39:29.651048000 : 8=FIX.4.4|9=78|35=8|34=269|49=COEPEXCH|52=20200612-19:39:29.650|56=EXECLINKS|37=3|39=0|150=0|10=010|
20200612-19:39:29.651190000 : 8=FIX.4.4|9=99|35=8|34=270|49=COEPEXCH|52=20200612-19:39:29.650|56=EXECLINKS|37=3|38=1|39=2|44=87.0|55=amzn|150=F|10=200|
20200612-19:39:29.651325000 : 8=FIX.4.4|9=99|35=8|34=271|49=COEPEXCH|52=20200612-19:39:29.650|56=EXECLINKS|37=1|38=1|39=2|44=87.0|55=amzn|150=F|10=199|
20200612-19:39:29.651455000 : 8=FIX.4.4|9=62|35=5|34=272|49=COEPEXCH|52=20200612-19:39:29.650|56=EXECLINKS|10=065|
20200613-01:33:55.157476000 : 8=FIX.4.4|9=73|35=A|34=245|49=EXECLINKS|52=20200613-01:33:55.128|56=COEPEXCH|98=0|108=1|10=039|
20200613-01:34:14.987520000 : 8=FIX.4.4|9=73|35=A|34=249|49=EXECLINKS|52=20200613-01:34:14.987|56=COEPEXCH|98=0|108=1|10=052|
20200613-01:34:15.124834000 : 8=FIX.4.4|9=73|35=A|34=273|49=COEPEXCH|52=20200613-01:34:15.068|56=EXECLINKS|98=0|108=1|10=040|
20200613-01:35:28.864764000 : 8=FIX.4.4|9=73|35=A|34=253|49=EXECLINKS|52=20200613-01:35:28.864|56=COEPEXCH|98=0|108=1|10=047|
20200613-01:35:28.865134000 : 8=FIX.4.4|9=73|35=A|34=275|49=COEPEXCH|52=20200613-01:35:28.864|56=EXECLINKS|98=0|108=1|10=051|
20200613-01:35:28.865441000 : 8=FIX.4.4|9=73|35=2|34=254|49=EXECLINKS|52=20200613-01:35:28.865|56=COEPEXCH|7=273|16=0|10=033|
20200613-01:35:28.865619000 : 8=FIX.4.4|9=73|35=2|34=276|49=COEPEXCH|52=20200613-01:35:28.865|56=EXECLINKS|7=245|16=0|10=036|
20200613-01:35:28.865969000 : 8=FIX.4.4|9=106|35=4|34=245|43=Y|49=EXECLINKS|52=20200613-01:35:28.865|56=COEPEXCH|122=20200613-01:35:28.865|36=246|123=Y|10=222|
20200613-01:35:28.866028000 : 8=FIX.4.4|9=178|35=D|34=246|43=Y|49=EXECLINKS|52=20200613-01:35:28.865|56=COEPEXCH|122=20200613-01:33:55.272|1=EXECLINKS|11=1|38=2|40=2|44=87|54=1|55=amzn|58=Buy shares|60=20200613-22:29:00.000|10=159|
20200613-01:35:28.866177000 : 8=FIX.4.4|9=179|35=D|34=247|43=Y|49=EXECLINKS|52=20200613-01:35:28.866|56=COEPEXCH|122=20200613-01:33:55.272|1=EXECLINKS|11=2|38=1|40=2|44=87|54=2|55=amzn|58=Sell shares|60=20200613-22:29:00.000|10=003|
20200613-01:35:28.866293000 : 8=FIX.4.4|9=179|35=D|34=248|43=Y|49=EXECLINKS|52=20200613-01:35:28.866|56=COEPEXCH|122=20200613-01:33:55.272|1=EXECLINKS|11=3|38=1|40=2|44=87|54=2|55=amzn|58=Sell shares|60=20200613-22:29:00.000|10=005|
20200613-01:35:28.866470000 : 8=FIX.4.4|9=106|35=4|34=249|43=Y|49=EXECLINKS|52=20200613-01:35:28.866|56=COEPEXCH|122=20200613-01:35:28.866|36=250|123=Y|10=223|
20200613-01:35:28.866502000 : 8=FIX.4.4|9=178|35=D|34=250|43=Y|49=EXECLINKS|52=20200613-01:35:28.866|56=COEPEXCH|122=20200613-01:34:15.054|1=EXECLINKS|11=1|38=2|40=2|44=87|54=1|55=amzn|58=Buy shares|60=20200613-22:29:00.000|10=150|
20200613-01:35:28.866585000 : 8=FIX.4.4|9=179|35=D|34=251|43=Y|49=EXECLINKS|52=20200613-01:35:28.866|56=COEPEXCH|122=20200613-01:34:15.054|1=EXECLINKS|11=2|38=1|40=2|44=87|54=2|55=amzn|58=Sell shares|60=20200613-22:29:00.000|10=249|
20200613-01:35:28.866689000 : 8=FIX.4.4|9=179|35=D|34=252|43=Y|49=EXECLINKS|52=20200613-01:35:28.866|56=COEPEXCH|122=20200613-01:34:15.055|1=EXECLINKS|11=3|38=1|40=2|44=87|54=2|55=amzn|58=Sell shares|60=20200613-22:29:00.000|10=252|
20200613-01:35:28.866757000 : 8=FIX.4.4|9=106|35=4|34=253|43=Y|49=EXECLINKS|52=20200613-01:35:28.866|56=COEPEXCH|122=20200613-01:35:28.866|36=255|123=Y|10=223|
20200613-01:35:28.866804000 : 8=FIX.4.4|9=106|35=4|34=273|43=Y|49=COEPEXCH|52=20200613-01:35:28.865|56=EXECLINKS|122=20200613-01:35:28.865|36=277|123=Y|10=227|
20200613-01:35:28.910400000 : 8=FIX.4.4|9=78|35=8|34=277|49=COEPEXCH|52=20200613-01:35:28.910|56=EXECLINKS|37=1|39=0|150=0|10=249|
20200613-01:35:28.939524000 : 8=FIX.4.4|9=147|35=D|34=255|49=EXECLINKS|52=20200613-01:35:28.939|56=COEPEXCH|1=EXECLINKS|11=1|38=2|40=2|44=87|54=1|55=amzn|58=Buy shares|60=20200613-22:29:00.000|10=163|
20200613-01:35:28.939659000 : 8=FIX.4.4|9=78|35=8|34=278|49=COEPEXCH|52=20200613-01:35:28.911|56=EXECLINKS|37=2|39=0|150=0|10=252|
20200613-01:35:28.940459000 : 8=FIX.4.4|9=148|35=D|34=256|49=EXECLINKS|52=20200613-01:35:28.940|56=COEPEXCH|1=EXECLINKS|11=2|38=1|40=2|44=87|54=2|55=amzn|58=Sell shares|60=20200613-22:29:00.000|10=254|
20200613-01:35:28.940474000 : 8=FIX.4.4|9=99|35=8|34=279|49=COEPEXCH|52=20200613-01:35:28.911|56=EXECLINKS|37=2|38=1|39=2|44=87.0|55=amzn|150=F|10=195|
20200613-01:35:28.941188000 : 8=FIX.4.4|9=99|35=8|34=280|49=COEPEXCH|52=20200613-01:35:28.911|56=EXECLINKS|37=1|38=1|39=1|44=87.0|55=amzn|150=F|10=185|
20200613-01:35:28.941262000 : 8=FIX.4.4|9=148|35=D|34=257|49=EXECLINKS|52=20200613-01:35:28.941|56=COEPEXCH|1=EXECLINKS|11=3|38=1|40=2|44=87|54=2|55=amzn|58=Sell shares|60=20200613-22:29:00.000|10=001|
20200613-01:35:28.941687000 : 8=FIX.4.4|9=62|35=5|34=258|49=EXECLINKS|52=20200613-01:35:28.941|56=COEPEXCH|10=059|
20200613-01:35:28.941709000 : 8=FIX.4.4|9=78|35=8|34=281|49=COEPEXCH|52=20200613-01:35:28.912|56=EXECLINKS|37=3|39=0|150=0|10=248|
20200613-01:35:28.941914000 : 8=FIX.4.4|9=99|35=8|34=282|49=COEPEXCH|52=20200613-01:35:28.912|56=EXECLINKS|37=3|38=1|39=2|44=87.0|55=amzn|150=F|10=191|
20200613-01:35:28.942121000 : 8=FIX.4.4|9=99|35=8|34=283|49=COEPEXCH|52=20200613-01:35:28.912|56=EXECLINKS|37=1|38=1|39=2|44=87.0|55=amzn|150=F|10=190|
20200613-01:35:28.942319000 : 8=FIX.4.4|9=78|35=8|34=284|49=COEPEXCH|52=20200613-01:35:28.913|56=EXECLINKS|37=1|39=0|150=0|10=250|
20200613-01:35:28.942515000 : 8=FIX.4.4|9=99|35=8|34=285|49=COEPEXCH|52=20200613-01:35:28.913|56=EXECLINKS|37=3|38=1|39=2|44=87.0|55=amzn|150=F|10=195|
20200613-01:35:28.942685000 : 8=FIX.4.4|9=99|35=8|34=286|49=COEPEXCH|52=20200613-01:35:28.914|56=EXECLINKS|37=1|38=1|39=1|44=87.0|55=amzn|150=F|10=194|
20200613-01:35:28.942889000 : 8=FIX.4.4|9=78|35=8|34=287|49=COEPEXCH|52=20200613-01:35:28.914|56=EXECLINKS|37=2|39=0|150=0|10=255|
20200613-01:35:28.943081000 : 8=FIX.4.4|9=99|35=8|34=288|49=COEPEXCH|52=20200613-01:35:28.915|56=EXECLINKS|37=2|38=1|39=2|44=87.0|55=amzn|150=F|10=199|
20200613-01:35:28.943275000 : 8=FIX.4.4|9=99|35=8|34=289|49=COEPEXCH|52=20200613-01:35:28.915|56=EXECLINKS|37=1|38=1|39=2|44=87.0|55=amzn|150=F|10=199|
20200613-01:35:28.943467000 : 8=FIX.4.4|9=78|35=8|34=290|49=COEPEXCH|52=20200613-01:35:28.915|56=EXECLINKS|37=3|39=0|150=0|10=251|
20200613-01:35:28.943682000 : 8=FIX.4.4|9=73|35=2|34=291|49=COEPEXCH|52=20200613-01:35:28.939|56=EXECLINKS|7=254|16=0|10=035|
20200613-01:35:28.943889000 : 8=FIX.4.4|9=106|35=4|34=254|43=Y|49=EXECLINKS|52=20200613-01:35:28.943|56=COEPEXCH|122=20200613-01:35:28.943|36=255|123=Y|10=216|
20200613-01:35:28.943931000 : 8=FIX.4.4|9=178|35=D|34=255|43=Y|49=EXECLINKS|52=20200613-01:35:28.943|56=COEPEXCH|122=20200613-01:35:28.939|1=EXECLINKS|11=1|38=2|40=2|44=87|54=1|55=amzn|58=Buy shares|60=20200613-22:29:00.000|10=168|
20200613-01:35:28.944021000 : 8=FIX.4.4|9=179|35=D|34=256|43=Y|49=EXECLINKS|52=20200613-01:35:28.943|56=COEPEXCH|122=20200613-01:35:28.940|1=EXECLINKS|11=2|38=1|40=2|44=87|54=2|55=amzn|58=Sell shares|60=20200613-22:29:00.000|10=003|
20200613-01:35:28.944123000 : 8=FIX.4.4|9=179|35=D|34=257|43=Y|49=EXECLINKS|52=20200613-01:35:28.944|56=COEPEXCH|122=20200613-01:35:28.941|1=EXECLINKS|11=3|38=1|40=2|44=87|54=2|55=amzn|58=Sell shares|60=20200613-22:29:00.000|10=007|
20200613-01:35:28.944188000 : 8=FIX.4.4|9=106|35=4|34=258|43=Y|49=EXECLINKS|52=20200613-01:35:28.944|56=COEPEXCH|122=20200613-01:35:28.944|36=259|123=Y|10=226|
20200613-01:35:28.986020000 : 8=FIX.4.4|9=62|35=5|34=292|49=COEPEXCH|52=20200613-01:35:28.985|56=EXECLINKS|10=065|
20200613-01:36:32.931542000 : 8=FIX.4.4|9=73|35=A|34=259|49=EXECLINKS|52=20200613-01:36:32.931|56=COEPEXCH|98=0|108=1|10=044|
20200613-01:36:32.931999000 : 8=FIX.4.4|9=73|35=A|34=294|49=COEPEXCH|52=20200613-01:36:32.931|56=EXECLINKS|98=0|108=1|10=043|
20200613-01:36:32.932156000 : 8=FIX.4.4|9=73|35=2|34=260|49=EXECLINKS|52=20200613-01:36:32.932|56=COEPEXCH|7=293|16=0|10=023|
20200613-01:36:32.932267000 : 8=FIX.4.4|9=73|35=2|34=295|49=COEPEXCH|52=20200613-01:36:32.932|56=EXECLINKS|7=255|16=0|10=029|
20200613-01:36:32.932525000 : 8=FIX.4.4|9=178|35=D|34=255|43=Y|49=EXECLINKS|52=20200613-01:36:32.932|56=COEPEXCH|122=20200613-01:35:28.939|1=EXECLINKS|11=1|38=2|40=2|44=87|54=1|55=amzn|58=Buy shares|60=20200613-22:29:00.000|10=162|
20200613-01:36:32.932656000 : 8=FIX.4.4|9=179|35=D|34=256|43=Y|49=EXECLINKS|52=20200613-01:36:32.932|56=COEPEXCH|122=20200613-01:35:28.940|1=EXECLINKS|11=2|38=1|40=2|44=87|54=2|55=amzn|58=Sell shares|60=20200613-22:29:00.000|10=253|
20200613-01:36:32.932799000 : 8=FIX.4.4|9=179|35=D|34=257|43=Y|49=EXECLINKS|52=20200613-01:36:32.932|56=COEPEXCH|122=20200613-01:35:28.941|1=EXECLINKS|11=3|38=1|40=2|44=87|54=2|55=amzn|58=Sell shares|60=20200613-22:29:00.000|10=000|
20200613-01:36:32.932878000 : 8=FIX.4.4|9=106|35=4|34=258|43=Y|49=EXECLINKS|52=20200613-01:36:32.932|56=COEPEXCH|122=20200613-01:36:32.932|36=261|123=Y|10=205|
20200613-01:36:32.932926000 : 8=FIX.4.4|9=106|35=4|34=293|43=Y|49=COEPEXCH|52=20200613-01:36:32.932|56=EXECLINKS|122=20200613-01:36:32.932|36=296|123=Y|10=212|
20200613-01:36:32.934235000 : 8=FIX.4.4|9=78|35=8|34=296|49=COEPEXCH|52=20200613-01:36:32.933|56=EXECLINKS|37=1|39=0|150=0|10=251|
20200613-01:36:32.934601000 : 8=FIX.4.4|9=99|35=8|34=297|49=COEPEXCH|52=20200613-01:36:32.934|56=EXECLINKS|37=3|38=1|39=2|44=87.0|55=amzn|150=F|10=197|
20200613-01:36:32.977413000 : 8=FIX.4.4|9=99|35=8|34=298|49=COEPEXCH|52=20200613-01:36:32.934|56=EXECLINKS|37=1|38=1|39=1|44=87.0|55=amzn|150=F|10=195|
20200613-01:36:32.977779000 : 8=FIX.4.4|9=99|35=8|34=299|49=COEPEXCH|52=20200613-01:36:32.934|56=EXECLINKS|37=2|38=1|39=2|44=87.0|55=amzn|150=F|10=198|
20200613-01:36:32.977968000 : 8=FIX.4.4|9=99|35=8|34=300|49=COEPEXCH|52=20200613-01:36:32.934|56=EXECLINKS|37=1|38=1|39=2|44=87.0|55=amzn|150=F|10=180|
20200613-01:36:32.978158000 : 8=FIX.4.4|9=78|35=8|34=301|49=COEPEXCH|52=20200613-01:36:32.935|56=EXECLINKS|37=2|39=0|150=0|10=241|
20200613-01:36:32.978352000 : 8=FIX.4.4|9=78|35=8|34=302|49=COEPEXCH|52=20200613-01:36:32.936|56=EXECLINKS|37=3|39=0|150=0|10=244|
20200613-01:36:32.998890000 : 8=FIX.4.4|9=147|35=D|34=261|49=EXECLINKS|52=20200613-01:36:32.998|56=COEPEXCH|1=EXECLINKS|11=1|38=2|40=2|44=87|54=1|55=amzn|58=Buy shares|60=20200613-22:29:00.000|10=161|
20200613-01:36:32.999485000 : 8=FIX.4.4|9=148|35=D|34=262|49=EXECLINKS|52=20200613-01:36:32.999|56=COEPEXCH|1=EXECLINKS|11=2|38=1|40=2|44=87|54=2|55=amzn|58=Sell shares|60=20200613-22:29:00.000|10=005|
20200613-01:36:33.000021000 : 8=FIX.4.4|9=148|35=D|34=263|49=EXECLINKS|52=20200613-01:36:32.999|56=COEPEXCH|1=EXECLINKS|11=3|38=1|40=2|44=87|54=2|55=amzn|58=Sell shares|60=20200613-22:29:00.000|10=007|
20200613-01:36:33.000542000 : 8=FIX.4.4|9=78|35=8|34=303|49=COEPEXCH|52=20200613-01:36:33.000|56=EXECLINKS|37=1|39=0|150=0|10=226|
20200613-01:36:33.000959000 : 8=FIX.4.4|9=62|35=5|34=264|49=EXECLINKS|52=20200613-01:36:33.000|56=COEPEXCH|10=039|
20200613-01:36:33.001039000 : 8=FIX.4.4|9=99|35=8|34=304|49=COEPEXCH|52=20200613-01:36:33.000|56=EXECLINKS|37=3|38=1|39=2|44=87.0|55=amzn|150=F|10=171|
20200613-01:36:33.001395000 : 8=FIX.4.4|9=99|35=8|34=305|49=COEPEXCH|52=20200613-01:36:33.000|56=EXECLINKS|37=1|38=1|39=1|44=87.0|55=amzn|150=F|10=169|
20200613-01:36:33.003158000 : 8=FIX.4.4|9=99|35=8|34=306|49=COEPEXCH|52=20200613-01:36:33.001|56=EXECLINKS|37=2|38=1|39=2|44=87.0|55=amzn|150=F|10=173|
20200613-01:36:33.003367000 : 8=FIX.4.4|9=99|35=8|34=307|49=COEPEXCH|52=20200613-01:36:33.001|56=EXECLINKS|37=1|38=1|39=2|44=87.0|55=amzn|150=F|10=173|
20200613-01:36:33.003521000 : 8=FIX.4.4|9=78|35=8|34=308|49=COEPEXCH|52=20200613-01:36:33.002|56=EXECLINKS|37=2|39=0|150=0|10=234|
20200613-01:36:33.003655000 : 8=FIX.4.4|9=78|35=8|34=309|49=COEPEXCH|52=20200613-01:36:33.002|56=EXECLINKS|37=3|39=0|150=0|10=236|
20200613-01:36:33.003783000 : 8=FIX.4.4|9=62|35=5|34=310|49=COEPEXCH|52=20200613-01:36:33.002|56=EXECLINKS|10=033|
20200613-01:37:39.424928000 : 8=FIX.4.4|9=73|35=A|34=265|49=EXECLINKS|52=20200613-01:37:39.424|56=COEPEXCH|98=0|108=1|10=046|
20200613-01:37:39.425369000 : 8=FIX.4.4|9=73|35=A|34=311|49=COEPEXCH|52=20200613-01:37:39.425|56=EXECLINKS|98=0|108=1|10=039|
20200613-01:37:39.497627000 : 8=FIX.4.4|9=147|35=D|34=266|49=EXECLINKS|52=20200613-01:37:39.497|56=COEPEXCH|1=EXECLINKS|11=1|38=2|40=2|44=87|54=1|55=amzn|58=Buy shares|60=20200613-22:29:00.000|10=168|
20200613-01:37:39.498023000 : 8=FIX.4.4|9=148|35=D|34=267|49=EXECLINKS|52=20200613-01:37:39.497|56=COEPEXCH|1=EXECLINKS|11=2|38=1|40=2|44=87|54=2|55=amzn|58=Sell shares|60=20200613-22:29:00.000|10=011|
20200613-01:37:39.498346000 : 8=FIX.4.4|9=148|35=D|34=268|49=EXECLINKS|52=20200613-01:37:39.498|56=COEPEXCH|1=EXECLINKS|11=3|38=1|40=2|44=87|54=2|55=amzn|58=Sell shares|60=20200613-22:29:00.000|10=014|
20200613-01:37:39.498917000 : 8=FIX.4.4|9=78|35=8|34=312|49=COEPEXCH|52=20200613-01:37:39.498|56=EXECLINKS|37=1|39=0|150=0|10=254|
20200613-01:37:39.499379000 : 8=FIX.4.4|9=62|35=5|34=269|49=EXECLINKS|52=20200613-01:37:39.499|56=COEPEXCH|10=073|
20200613-01:37:39.499464000 : 8=FIX.4.4|9=99|35=8|34=313|49=COEPEXCH|52=20200613-01:37:39.498|56=EXECLINKS|37=2|38=1|39=2|44=87.0|55=amzn|150=F|10=198|
20200613-01:37:39.499735000 : 8=FIX.4.4|9=99|35=8|34=314|49=COEPEXCH|52=20200613-01:37:39.499|56=EXECLINKS|37=1|38=1|39=1|44=87.0|55=amzn|150=F|10=198|
20200613-01:37:39.501096000 : 8=FIX.4.4|9=99|35=8|34=315|49=COEPEXCH|52=20200613-01:37:39.499|56=EXECLINKS|37=2|38=1|39=2|44=87.0|55=amzn|150=F|10=201|
20200613-01:37:39.501326000 : 8=FIX.4.4|9=99|35=8|34=316|49=COEPEXCH|52=20200613-01:37:39.499|56=EXECLINKS|37=1|38=1|39=2|44=87.0|55=amzn|150=F|10=201|
20200613-01:37:39.501502000 : 8=FIX.4.4|9=78|35=8|34=317|49=COEPEXCH|52=20200613-01:37:39.500|56=EXECLINKS|37=2|39=0|150=0|10=244|
20200613-01:37:39.501664000 : 8=FIX.4.4|9=78|35=8|34=318|49=COEPEXCH|52=20200613-01:37:39.500|56=EXECLINKS|37=3|39=0|150=0|10=246|
20200613-01:37:39.501813000 : 8=FIX.4.4|9=62|35=5|34=319|49=COEPEXCH|52=20200613-01:37:39.500|56=EXECLINKS|10=052|
20200613-01:39:06.504894000 : 8=FIX.4.4|9=73|35=A|34=270|49=EXECLINKS|52=20200613-01:39:06.504|56=COEPEXCH|98=0|108=1|10=037|
20200613-01:39:06.505404000 : 8=FIX.4.4|9=73|35=A|34=320|49=COEPEXCH|52=20200613-01:39:06.505|56=EXECLINKS|98=0|108=1|10=034|
20200613-01:39:06.569723000 : 8=FIX.4.4|9=147|35=D|34=271|49=EXECLINKS|52=20200613-01:39:06.569|56=COEPEXCH|1=EXECLINKS|11=1|38=2|40=2|44=87|54=1|55=amzn|58=Buy shares|60=20200613-22:29:00.000|10=160|
20200613-01:39:06.570263000 : 8=FIX.4.4|9=148|35=D|34=272|49=EXECLINKS|52=20200613-01:39:06.570|56=COEPEXCH|1=EXECLINKS|11=2|38=1|40=2|44=87|54=2|55=amzn|58=Sell shares|60=20200613-22:29:00.000|10=251|
20200613-01:39:06.570763000 : 8=FIX.4.4|9=148|35=D|34=273|49=EXECLINKS|52=20200613-01:39:06.570|56=COEPEXCH|1=EXECLINKS|11=3|38=1|40=2|44=87|54=2|55=amzn|58=Sell shares|60=20200613-22:29:00.000|10=253|
20200613-01:39:06.571239000 : 8=FIX.4.4|9=149|35=D|34=274|49=EXECLINKS|52=20200613-01:39:06.571|56=COEPEXCH|1=EXECLINKS|11=4|38=1|40=2|44=120|54=2|55=bsnl|58=Sell shares|60=20200613-22:29:00.000|10=030|
20200613-01:39:06.571591000 : 8=FIX.4.4|9=78|35=8|34=321|49=COEPEXCH|52=20200613-01:39:06.571|56=EXECLINKS|37=1|39=0|150=0|10=242|
20200613-01:39:06.571935000 : 8=FIX.4.4|9=62|35=5|34=275|49=EXECLINKS|52=20200613-01:39:06.571|56=COEPEXCH|10=057|
20200613-01:39:06.571997000 : 8=FIX.4.4|9=99|35=8|34=322|49=COEPEXCH|52=20200613-01:39:06.571|56=EXECLINKS|37=2|38=1|39=2|44=87.0|55=amzn|150=F|10=186|
20200613-01:39:06.572172000 : 8=FIX.4.4|9=99|35=8|34=323|49=COEPEXCH|52=20200613-01:39:06.571|56=EXECLINKS|37=1|38=1|39=1|44=87.0|55=amzn|150=F|10=185|
20200613-01:39:06.574249000 : 8=FIX.4.4|9=99|35=8|34=324|49=COEPEXCH|52=20200613-01:39:06.572|56=EXECLINKS|37=3|38=1|39=2|44=87.0|55=amzn|150=F|10=190|
20200613-01:39:06.574455000 : 8=FIX.4.4|9=99|35=8|34=325|49=COEPEXCH|52=20200613-01:39:06.572|56=EXECLINKS|37=1|38=1|39=2|44=87.0|55=amzn|150=F|10=189|
20200613-01:39:06.574607000 : 8=FIX.4.4|9=78|35=8|34=326|49=COEPEXCH|52=20200613-01:39:06.572|56=EXECLINKS|37=2|39=0|150=0|10=249|
20200613-01:39:06.574746000 : 8=FIX.4.4|9=78|35=8|34=327|49=COEPEXCH|52=20200613-01:39:06.573|56=EXECLINKS|37=3|39=0|150=0|10=252|
20200613-01:39:06.574879000 : 8=FIX.4.4|9=62|35=5|34=328|49=COEPEXCH|52=20200613-01:39:06.574|56=EXECLINKS|10=059|
20200613-01:48:02.975352000 : 8=FIX.4.4|9=73|35=A|34=276|49=EXECLINKS|52=20200613-01:48:02.975|56=COEPEXCH|98=0|108=1|10=051|
20200613-01:48:02.975830000 : 8=FIX.4.4|9=73|35=A|34=329|49=COEPEXCH|52=20200613-01:48:02.975|56=EXECLINKS|98=0|108=1|10=050|
20200613-01:48:19.043360000 : 8=FIX.4.4|9=73|35=A|34=277|49=EXECLINKS|52=20200613-01:48:19.043|56=COEPEXCH|98=0|108=1|10=046|
20200613-01:48:19.043731000 : 8=FIX.4.4|9=73|35=A|34=330|49=COEPEXCH|52=20200613-01:48:19.043|56=EXECLINKS|98=0|108=1|10=036|
20200613-01:48:19.109215000 : 8=FIX.4.4|9=147|35=D|34=278|49=EXECLINKS|52=20200613-01:48:19.109|56=COEPEXCH|1=EXECLINKS|11=1|38=2|40=2|44=87|54=1|55=amzn|58=Buy shares|60=20200613-22:29:00.000|10=161|
20200613-01:48:19.109674000 : 8=FIX.4.4|9=148|35=D|34=279|49=EXECLINKS|52=20200613-01:48:19.109|56=COEPEXCH|1=EXECLINKS|11=2|38=1|40=2|44=87|54=2|55=amzn|58=Sell shares|60=20200613-22:29:00.000|10=004|
20200613-01:48:19.110010000 : 8=FIX.4.4|9=148|35=D|34=280|49=EXECLINKS|52=20200613-01:48:19.109|56=COEPEXCH|1=EXECLINKS|11=3|38=1|40=2|44=87|54=2|55=amzn|58=Sell shares|60=20200613-22:29:00.000|10=253|
20200613-01:48:19.110319000 : 8=FIX.4.4|9=78|35=8|34=331|49=COEPEXCH|52=20200613-01:48:19.110|56=EXECLINKS|37=1|39=0|150=0|10=236|
20200613-01:48:19.110772000 : 8=FIX.4.4|9=62|35=5|34=281|49=EXECLINKS|52=20200613-01:48:19.110|56=COEPEXCH|10=047|
20200613-01:48:19.111321000 : 8=FIX.4.4|9=78|35=8|34=332|49=COEPEXCH|52=20200613-01:48:19.111|56=EXECLINKS|37=2|39=0|150=0|10=239|
20200613-01:48:19.111638000 : 8=FIX.4.4|9=99|35=8|34=333|49=COEPEXCH|52=20200613-01:48:19.111|56=EXECLINKS|37=2|38=1|39=2|44=87.0|55=amzn|150=F|10=182|
20200613-01:48:19.113270000 : 8=FIX.4.4|9=99|35=8|34=334|49=COEPEXCH|52=20200613-01:48:19.111|56=EXECLINKS|37=1|38=1|39=1|44=87.0|55=amzn|150=F|10=181|
20200613-01:48:19.113591000 : 8=FIX.4.4|9=78|35=8|34=335|49=COEPEXCH|52=20200613-01:48:19.112|56=EXECLINKS|37=3|39=0|150=0|10=244|
20200613-01:48:19.113792000 : 8=FIX.4.4|9=99|35=8|34=336|49=COEPEXCH|52=20200613-01:48:19.112|56=EXECLINKS|37=3|38=1|39=2|44=87.0|55=amzn|150=F|10=187|
20200613-01:48:19.113990000 : 8=FIX.4.4|9=99|35=8|34=337|49=COEPEXCH|52=20200613-01:48:19.112|56=EXECLINKS|37=1|38=1|39=2|44=87.0|55=amzn|150=F|10=186|
20200613-01:48:19.114178000 : 8=FIX.4.4|9=62|35=5|34=338|49=COEPEXCH|52=20200613-01:48:19.113|56=EXECLINKS|10=053|
20200613-01:50:36.266616000 : 8=FIX.4.4|9=73|35=A|34=282|49=EXECLINKS|52=20200613-01:50:36.266|56=COEPEXCH|98=0|108=1|10=041|
20200613-01:50:36.266990000 : 8=FIX.4.4|9=73|35=A|34=339|49=COEPEXCH|52=20200613-01:50:36.266|56=EXECLINKS|98=0|108=1|10=044|
20200613-01:50:36.331397000 : 8=FIX.4.4|9=147|35=D|34=283|49=EXECLINKS|52=20200613-01:50:36.331|56=COEPEXCH|1=EXECLINKS|11=1|38=2|40=2|44=87|54=1|55=amzn|58=Buy shares|60=20200613-22:29:00.000|10=146|
20200613-01:50:36.331790000 : 8=FIX.4.4|9=148|35=D|34=284|49=EXECLINKS|52=20200613-01:50:36.331|56=COEPEXCH|1=EXECLINKS|11=2|38=1|40=2|44=87|54=2|55=amzn|58=Sell shares|60=20200613-22:29:00.000|10=245|
20200613-01:50:36.332103000 : 8=FIX.4.4|9=148|35=D|34=285|49=EXECLINKS|52=20200613-01:50:36.332|56=COEPEXCH|1=EXECLINKS|11=3|38=1|40=2|44=87|54=2|55=amzn|58=Sell shares|60=20200613-22:29:00.000|10=248|
20200613-01:50:36.332512000 : 8=FIX.4.4|9=78|35=8|34=340|49=COEPEXCH|52=20200613-01:50:36.332|56=EXECLINKS|37=1|39=0|150=0|10=234|
20200613-01:50:36.332976000 : 8=FIX.4.4|9=62|35=5|34=286|49=EXECLINKS|52=20200613-01:50:36.332|56=COEPEXCH|10=050|
20200613-01:50:36.333060000 : 8=FIX.4.4|9=99|35=8|34=341|49=COEPEXCH|52=20200613-01:50:36.332|56=EXECLINKS|37=3|38=1|39=2|44=87.0|55=amzn|150=F|10=179|
20200613-01:50:36.333361000 : 8=FIX.4.4|9=99|35=8|34=342|49=COEPEXCH|52=20200613-01:50:36.332|56=EXECLINKS|37=1|38=1|39=1|44=87.0|55=amzn|150=F|10=177|
20200613-01:50:36.335095000 : 8=FIX.4.4|9=78|35=8|34=343|49=COEPEXCH|52=20200613-01:50:36.333|56=EXECLINKS|37=2|39=0|150=0|10=239|
20200613-01:50:36.335309000 : 8=FIX.4.4|9=99|35=8|34=344|49=COEPEXCH|52=20200613-01:50:36.334|56=EXECLINKS|37=2|38=1|39=2|44=87.0|55=amzn|150=F|10=183|
20200613-01:50:36.335473000 : 8=FIX.4.4|9=99|35=8|34=345|49=COEPEXCH|52=20200613-01:50:36.334|56=EXECLINKS|37=1|38=1|39=2|44=87.0|55=amzn|150=F|10=183|
20200613-01:50:36.335618000 : 8=FIX.4.4|9=78|35=8|34=346|49=COEPEXCH|52=20200613-01:50:36.334|56=EXECLINKS|37=3|39=0|150=0|10=244|
20200613-01:50:36.335752000 : 8=FIX.4.4|9=62|35=5|34=347|49=COEPEXCH|52=20200613-01:50:36.334|56=EXECLINKS|10=050|
20200613-01:56:40.397164000 : 8=FIX.4.4|9=73|35=A|34=287|49=EXECLINKS|52=20200613-01:56:40.397|56=COEPEXCH|98=0|108=1|10=052|
20200613-01:56:40.397691000 : 8=FIX.4.4|9=73|35=A|34=348|49=COEPEXCH|52=20200613-01:56:40.397|56=EXECLINKS|98=0|108=1|10=050|
20200613-01:56:40.469886000 : 8=FIX.4.4|9=147|35=D|34=288|49=EXECLINKS|52=20200613-01:56:40.469|56=COEPEXCH|1=EXECLINKS|11=1|38=2|40=2|44=87|54=1|55=amzn|58=Buy shares|60=20200613-22:29:00.000|10=164|
20200613-01:56:40.470457000 : 8=FIX.4.4|9=148|35=D|34=289|49=EXECLINKS|52=20200613-01:56:40.470|56=COEPEXCH|1=EXECLINKS|11=2|38=1|40=2|44=87|54=2|55=amzn|58=Sell shares|60=20200613-22:29:00.000|10=255|
20200613-01:56:40.470962000 : 8=FIX.4.4|9=148|35=D|34=290|49=EXECLINKS|52=20200613-01:56:40.470|56=COEPEXCH|1=EXECLINKS|11=3|38=1|40=2|44=87|54=2|55=amzn|58=Sell shares|60=20200613-22:29:00.000|10=248|
20200613-01:56:40.471315000 : 8=FIX.4.4|9=78|35=8|34=349|49=COEPEXCH|52=20200613-01:56:40.471|56=EXECLINKS|37=1|39=0|150=0|10=248|
20200613-01:56:40.471724000 : 8=FIX.4.4|9=62|35=5|34=291|49=EXECLINKS|52=20200613-01:56:40.471|56=COEPEXCH|10=051|
20200613-01:56:40.472277000 : 8=FIX.4.4|9=78|35=8|34=350|49=COEPEXCH|52=20200613-01:56:40.472|56=EXECLINKS|37=2|39=0|150=0|10=242|
20200613-01:56:40.472514000 : 8=FIX.4.4|9=99|35=8|34=351|49=COEPEXCH|52=20200613-01:56:40.472|56=EXECLINKS|37=2|38=1|39=2|44=87.0|55=amzn|150=F|10=185|
20200613-01:56:40.474369000 : 8=FIX.4.4|9=99|35=8|34=352|49=COEPEXCH|52=20200613-01:56:40.472|56=EXECLINKS|37=1|38=1|39=1|44=87.0|55=amzn|150=F|10=184|
20200613-01:56:40.474989000 : 8=FIX.4.4|9=78|35=8|34=353|49=COEPEXCH|52=20200613-01:56:40.473|56=EXECLINKS|37=3|39=0|150=0|10=247|
20200613-01:56:40.475358000 : 8=FIX.4.4|9=99|35=8|34=354|49=COEPEXCH|52=20200613-01:56:40.473|56=EXECLINKS|37=3|38=1|39=2|44=87.0|55=amzn|150=F|10=190|
20200613-01:56:40.475521000 : 8=FIX.4.4|9=99|35=8|34=355|49=COEPEXCH|52=20200613-01:56:40.473|56=EXECLINKS|37=1|38=1|39=2|44=87.0|55=amzn|150=F|10=189|
20200613-01:56:40.475670000 : 8=FIX.4.4|9=62|35=5|34=356|49=COEPEXCH|52=20200613-01:56:40.474|56=EXECLINKS|10=056|
20200613-03:28:51.058826000 : 8=FIX.4.4|9=73|35=A|34=292|49=EXECLINKS|52=20200613-03:28:51.058|56=COEPEXCH|98=0|108=1|10=045|
20200613-03:28:51.059453000 : 8=FIX.4.4|9=73|35=A|34=357|49=COEPEXCH|52=20200613-03:28:51.059|56=EXECLINKS|98=0|108=1|10=048|
20200613-03:28:51.126096000 : 8=FIX.4.4|9=147|35=D|34=293|49=EXECLINKS|52=20200613-03:28:51.125|56=COEPEXCH|1=EXECLINKS|11=1|38=2|40=2|44=87|54=1|55=amzn|58=Buy shares|60=20200613-22:29:00.000|10=152|
20200613-03:28:51.126648000 : 8=FIX.4.4|9=148|35=D|34=294|49=EXECLINKS|52=20200613-03:28:51.126|56=COEPEXCH|1=EXECLINKS|11=2|38=1|40=2|44=87|54=2|55=amzn|58=Sell shares|60=20200613-22:29:00.000|10=252|
20200613-03:28:51.127146000 : 8=FIX.4.4|9=148|35=D|34=295|49=EXECLINKS|52=20200613-03:28:51.127|56=COEPEXCH|1=EXECLINKS|11=3|38=1|40=2|44=87|54=2|55=amzn|58=Sell shares|60=20200613-22:29:00.000|10=255|
20200613-03:28:51.127406000 : 8=FIX.4.4|9=78|35=8|34=358|49=COEPEXCH|52=20200613-03:28:51.127|56=EXECLINKS|37=1|39=0|150=0|10=249|
20200613-03:28:51.127803000 : 8=FIX.4.4|9=62|35=5|34=296|49=EXECLINKS|52=20200613-03:28:51.127|56=COEPEXCH|10=057|
20200613-03:28:51.128160000 : 8=FIX.4.4|9=78|35=8|34=359|49=COEPEXCH|52=20200613-03:28:51.127|56=EXECLINKS|37=2|39=0|150=0|10=251|
20200613-03:28:51.128455000 : 8=FIX.4.4|9=99|35=8|34=360|49=COEPEXCH|52=20200613-03:28:51.128|56=EXECLINKS|37=2|38=1|39=2|44=87.0|55=amzn|150=F|10=186|
20200613-03:28:51.129740000 : 8=FIX.4.4|9=99|35=8|34=361|49=COEPEXCH|52=20200613-03:28:51.128|56=EXECLINKS|37=1|38=1|39=1|44=87.0|55=amzn|150=F|10=185|
20200613-03:28:51.130024000 : 8=FIX.4.4|9=78|35=8|34=362|49=COEPEXCH|52=20200613-03:28:51.129|56=EXECLINKS|37=3|39=0|150=0|10=248|
20200613-03:28:51.130224000 : 8=FIX.4.4|9=99|35=8|34=363|49=COEPEXCH|52=20200613-03:28:51.129|56=EXECLINKS|37=3|38=1|39=2|44=87.0|55=amzn|150=F|10=191|
20200613-03:28:51.130420000 : 8=FIX.4.4|9=99|35=8|34=364|49=COEPEXCH|52=20200613-03:28:51.129|56=EXECLINKS|37=1|38=1|39=2|44=87.0|55=amzn|150=F|10=190|
20200613-03:28:51.130612000 : 8=FIX.4.4|9=62|35=5|34=365|49=COEPEXCH|52=20200613-03:28:51.129|56=EXECLINKS|10=056|
20200613-03:29:35.907410000 : 8=FIX.4.4|9=73|35=A|34=297|49=EXECLINKS|52=20200613-03:29:35.907|56=COEPEXCH|98=0|108=1|10=056|
20200613-03:29:35.908081000 : 8=FIX.4.4|9=73|35=A|34=366|49=COEPEXCH|52=20200613-03:29:35.907|56=EXECLINKS|98=0|108=1|10=053|
20200613-03:29:35.972832000 : 8=FIX.4.4|9=147|35=D|34=298|49=EXECLINKS|52=20200613-03:29:35.972|56=COEPEXCH|1=EXECLINKS|11=1|38=2|40=2|44=87|54=1|55=amzn|58=Buy shares|60=20200613-22:29:00.000|10=170|
20200613-03:29:35.973431000 : 8=FIX.4.4|9=148|35=D|34=299|49=EXECLINKS|52=20200613-03:29:35.973|56=COEPEXCH|1=EXECLINKS|11=2|38=1|40=2|44=87|54=2|55=amzn|58=Sell shares|60=20200613-22:29:00.000|10=014|
20200613-03:29:35.973938000 : 8=FIX.4.4|9=148|35=D|34=300|49=EXECLINKS|52=20200613-03:29:35.973|56=COEPEXCH|1=EXECLINKS|11=3|38=1|40=2|44=87|54=2|55=amzn|58=Sell shares|60=20200613-22:29:00.000|10=254|
20200613-03:29:35.974245000 : 8=FIX.4.4|9=78|35=8|34=367|49=COEPEXCH|52=20200613-03:29:35.973|56=EXECLINKS|37=1|39=0|150=0|10=005|
20200613-03:29:35.974580000 : 8=FIX.4.4|9=62|35=5|34=301|49=EXECLINKS|52=20200613-03:29:35.974|56=COEPEXCH|10=057|
20200613-03:29:35.975167000 : 8=FIX.4.4|9=78|35=8|34=368|49=COEPEXCH|52=20200613-03:29:35.974|56=EXECLINKS|37=2|39=0|150=0|10=008|
20200613-03:29:35.975519000 : 8=FIX.4.4|9=99|35=8|34=369|49=COEPEXCH|52=20200613-03:29:35.975|56=EXECLINKS|37=2|38=1|39=2|44=87.0|55=amzn|150=F|10=208|
20200613-03:29:35.976674000 : 8=FIX.4.4|9=99|35=8|34=370|49=COEPEXCH|52=20200613-03:29:35.975|56=EXECLINKS|37=1|38=1|39=1|44=87.0|55=amzn|150=F|10=198|
20200613-03:29:35.976938000 : 8=FIX.4.4|9=78|35=8|34=371|49=COEPEXCH|52=20200613-03:29:35.976|56=EXECLINKS|37=3|39=0|150=0|10=005|
20200613-03:29:35.977132000 : 8=FIX.4.4|9=99|35=8|34=372|49=COEPEXCH|52=20200613-03:29:35.976|56=EXECLINKS|37=3|38=1|39=2|44=87.0|55=amzn|150=F|10=204|
20200613-03:29:35.977374000 : 8=FIX.4.4|9=99|35=8|34=373|49=COEPEXCH|52=20200613-03:29:35.976|56=EXECLINKS|37=1|38=1|39=2|44=87.0|55=amzn|150=F|10=203|
20200613-03:29:35.977566000 : 8=FIX.4.4|9=62|35=5|34=374|49=COEPEXCH|52=20200613-03:29:35.976|56=EXECLINKS|10=069|
20200613-03:51:02.168608000 : 8=FIX.4.4|9=73|35=A|34=302|49=EXECLINKS|52=20200613-03:51:02.168|56=COEPEXCH|98=0|108=1|10=031|
20200613-03:51:02.169216000 : 8=FIX.4.4|9=73|35=A|34=375|49=COEPEXCH|52=20200613-03:51:02.169|56=EXECLINKS|98=0|108=1|10=042|
20200613-03:51:02.234829000 : 8=FIX.4.4|9=147|35=D|34=303|49=EXECLINKS|52=20200613-03:51:02.234|56=COEPEXCH|1=EXECLINKS|11=1|38=2|40=2|44=87|54=1|55=amzn|58=Buy shares|60=20200613-22:29:00.000|10=137|
20200613-03:51:02.235359000 : 8=FIX.4.4|9=148|35=D|34=304|49=EXECLINKS|52=20200613-03:51:02.235|56=COEPEXCH|1=EXECLINKS|11=2|38=1|40=2|44=87|54=2|55=amzn|58=Sell shares|60=20200613-22:29:00.000|10=237|
20200613-03:51:02.235840000 : 8=FIX.4.4|9=148|35=D|34=305|49=EXECLINKS|52=20200613-03:51:02.235|56=COEPEXCH|1=EXECLINKS|11=3|38=1|40=2|44=87|54=2|55=amzn|58=Sell shares|60=20200613-22:29:00.000|10=239|
20200613-03:51:02.236119000 : 8=FIX.4.4|9=78|35=8|34=376|49=COEPEXCH|52=20200613-03:51:02.235|56=EXECLINKS|37=1|39=0|150=0|10=241|
20200613-03:51:02.236449000 : 8=FIX.4.4|9=62|35=5|34=306|49=EXECLINKS|52=20200613-03:51:02.236|56=COEPEXCH|10=042|
20200613-03:51:02.237027000 : 8=FIX.4.4|9=78|35=8|34=377|49=COEPEXCH|52=20200613-03:51:02.236|56=EXECLINKS|37=2|39=0|150=0|10=244|
20200613-03:51:02.237258000 : 8=FIX.4.4|9=99|35=8|34=378|49=COEPEXCH|52=20200613-03:51:02.237|56=EXECLINKS|37=2|38=1|39=2|44=87.0|55=amzn|150=F|10=188|
20200613-03:51:02.240244000 : 8=FIX.4.4|9=99|35=8|34=379|49=COEPEXCH|52=20200613-03:51:02.237|56=EXECLINKS|37=1|38=1|39=1|44=87.0|55=amzn|150=F|10=187|
20200613-03:51:02.240489000 : 8=FIX.4.4|9=78|35=8|34=380|49=COEPEXCH|52=20200613-03:51:02.239|56=EXECLINKS|37=3|39=0|150=0|10=242|
20200613-03:51:02.240649000 : 8=FIX.4.4|9=99|35=8|34=381|49=COEPEXCH|52=20200613-03:51:02.239|56=EXECLINKS|37=3|38=1|39=2|44=87.0|55=amzn|150=F|10=185|
20200613-03:51:02.240798000 : 8=FIX.4.4|9=99|35=8|34=382|49=COEPEXCH|52=20200613-03:51:02.239|56=EXECLINKS|37=1|38=1|39=2|44=87.0|55=amzn|150=F|10=184|
20200613-03:51:02.240945000 : 8=FIX.4.4|9=62|35=5|34=383|49=COEPEXCH|52=20200613-03:51:02.240|56=EXECLINKS|10=042|
20200613-03:51:53.654320000 : 8=FIX.4.4|9=73|35=A|34=307|49=EXECLINKS|52=20200613-03:51:53.654|56=COEPEXCH|98=0|108=1|10=042|
20200613-03:51:53.654774000 : 8=FIX.4.4|9=73|35=A|34=384|49=COEPEXCH|52=20200613-03:51:53.654|56=EXECLINKS|98=0|108=1|10=047|
20200613-03:51:53.721512000 : 8=FIX.4.4|9=147|35=D|34=308|49=EXECLINKS|52=20200613-03:51:53.721|56=COEPEXCH|1=EXECLINKS|11=1|38=2|40=2|44=87|54=1|55=amzn|58=Buy shares|60=20200613-22:29:00.000|10=149|
20200613-03:51:53.722105000 : 8=FIX.4.4|9=148|35=D|34=309|49=EXECLINKS|52=20200613-03:51:53.721|56=COEPEXCH|1=EXECLINKS|11=2|38=1|40=2|44=87|54=2|55=amzn|58=Sell shares|60=20200613-22:29:00.000|10=248|
20200613-03:51:53.722648000 : 8=FIX.4.4|9=148|35=D|34=310|49=EXECLINKS|52=20200613-03:51:53.722|56=COEPEXCH|1=EXECLINKS|11=3|38=1|40=2|44=87|54=2|55=amzn|58=Sell shares|60=20200613-22:29:00.000|10=242|
20200613-03:51:53.723030000 : 8=FIX.4.4|9=78|35=8|34=385|49=COEPEXCH|52=20200613-03:51:53.722|56=EXECLINKS|37=1|39=0|150=0|10=248|
20200613-03:51:53.723343000 : 8=FIX.4.4|9=148|35=D|34=311|49=EXECLINKS|52=20200613-03:51:53.723|56=COEPEXCH|1=EXECLINKS|11=4|38=3|40=2|44=99|54=2|55=amzn|58=Sell shares|60=20200613-22:29:00.000|10=250|
20200613-03:51:53.723624000 : 8=FIX.4.4|9=99|35=8|34=386|49=COEPEXCH|52=20200613-03:51:53.723|56=EXECLINKS|37=3|38=1|39=2|44=87.0|55=amzn|150=F|10=194|
20200613-03:51:53.723872000 : 8=FIX.4.4|9=62|35=5|34=312|49=EXECLINKS|52=20200613-03:51:53.723|56=COEPEXCH|10=046|
20200613-03:51:53.723912000 : 8=FIX.4.4|9=99|35=8|34=387|49=COEPEXCH|52=20200613-03:51:53.723|56=EXECLINKS|37=1|38=1|39=1|44=87.0|55=amzn|150=F|10=192|
20200613-03:51:53.724481000 : 8=FIX.4.4|9=78|35=8|34=388|49=COEPEXCH|52=20200613-03:51:53.724|56=EXECLINKS|37=2|39=0|150=0|10=254|
20200613-03:51:53.726402000 : 8=FIX.4.4|9=99|35=8|34=389|49=COEPEXCH|52=20200613-03:51:53.724|56=EXECLINKS|37=2|38=1|39=2|44=87.0|55=amzn|150=F|10=197|
20200613-03:51:53.726590000 : 8=FIX.4.4|9=99|35=8|34=390|49=COEPEXCH|52=20200613-03:51:53.724|56=EXECLINKS|37=1|38=1|39=2|44=87.0|55=amzn|150=F|10=188|
20200613-03:51:53.726756000 : 8=FIX.4.4|9=78|35=8|34=391|49=COEPEXCH|52=20200613-03:51:53.725|56=EXECLINKS|37=3|39=0|150=0|10=250|
20200613-03:51:53.726905000 : 8=FIX.4.4|9=78|35=8|34=392|49=COEPEXCH|52=20200613-03:51:53.725|56=EXECLINKS|37=4|39=0|150=0|10=252|
20200613-03:51:53.727050000 : 8=FIX.4.4|9=62|35=5|34=393|49=COEPEXCH|52=20200613-03:51:53.726|56=EXECLINKS|10=058|
20200613-03:52:14.740947000 : 8=FIX.4.4|9=73|35=A|34=313|49=EXECLINKS|52=20200613-03:52:14.740|56=COEPEXCH|98=0|108=1|10=033|
20200613-03:52:14.741344000 : 8=FIX.4.4|9=73|35=A|34=394|49=COEPEXCH|52=20200613-03:52:14.741|56=EXECLINKS|98=0|108=1|10=043|
20200613-03:52:14.806167000 : 8=FIX.4.4|9=147|35=D|34=314|49=EXECLINKS|52=20200613-03:52:14.806|56=COEPEXCH|1=EXECLINKS|11=1|38=2|40=2|44=87|54=1|55=amzn|58=Buy shares|60=20200613-22:29:00.000|10=148|
20200613-03:52:14.806538000 : 8=FIX.4.4|9=148|35=D|34=315|49=EXECLINKS|52=20200613-03:52:14.806|56=COEPEXCH|1=EXECLINKS|11=2|38=1|40=2|44=87|54=2|55=amzn|58=Sell shares|60=20200613-22:29:00.000|10=247|
20200613-03:52:14.806840000 : 8=FIX.4.4|9=148|35=D|34=316|49=EXECLINKS|52=20200613-03:52:14.806|56=COEPEXCH|1=EXECLINKS|11=3|38=1|40=2|44=87|54=2|55=amzn|58=Sell shares|60=20200613-22:29:00.000|10=249|
20200613-03:52:14.807112000 : 8=FIX.4.4|9=148|35=D|34=317|49=EXECLINKS|52=20200613-03:52:14.807|56=COEPEXCH|1=EXECLINKS|11=4|38=3|40=2|44=99|54=2|55=amzn|58=Sell shares|60=20200613-22:29:00.000|10=001|
20200613-03:52:14.807470000 : 8=FIX.4.4|9=78|35=8|34=395|49=COEPEXCH|52=20200613-03:52:14.807|56=EXECLINKS|37=1|39=0|150=0|10=251|
