8=FIX.4.4|9=71|35=A|34=1|49=COEPEXCH|52=20200825-12:49:51.463|56=EXECLINKS|98=0|108=1|10=199|8=FIX.4.4|9=76|35=8|34=2|49=COEPEXCH|52=20200825-12:49:51.519|56=EXECLINKS|37=1|39=0|150=0|10=150|8=FIX.4.4|9=76|35=8|34=3|49=COEPEXCH|52=20200825-12:49:51.520|56=EXECLINKS|37=2|39=0|150=0|10=144|8=FIX.4.4|9=97|35=8|34=4|49=COEPEXCH|52=20200825-12:49:51.520|56=EXECLINKS|37=2|38=1|39=2|44=87.0|55=amzn|150=F|10=087|8=FIX.4.4|9=97|35=8|34=5|49=COEPEXCH|52=20200825-12:49:51.520|56=EXECLINKS|37=1|38=1|39=1|44=87.0|55=amzn|150=F|10=086|8=FIX.4.4|9=76|35=8|34=6|49=COEPEXCH|52=20200825-12:49:51.521|56=EXECLINKS|37=3|39=0|150=0|10=149|8=FIX.4.4|9=97|35=8|34=7|49=COEPEXCH|52=20200825-12:49:51.522|56=EXECLINKS|37=3|38=1|39=2|44=87.0|55=amzn|150=F|10=093|8=FIX.4.4|9=97|35=8|34=8|49=COEPEXCH|52=20200825-12:49:51.522|56=EXECLINKS|37=1|38=1|39=2|44=87.0|55=amzn|150=F|10=092|8=FIX.4.4|9=76|35=8|34=9|49=COEPEXCH|52=20200825-12:49:51.522|56=EXECLINKS|37=4|39=0|150=0|10=154|8=FIX.4.4|9=61|35=5|34=10|49=COEPEXCH|52=20200825-12:49:51.523|56=EXECLINKS|10=000|8=FIX.4.4|9=72|35=A|34=11|49=COEPEXCH|52=20200825-12:50:13.150|56=EXECLINKS|98=0|108=1|10=232|8=FIX.4.4|9=77|35=8|34=12|49=COEPEXCH|52=20200825-12:50:13.219|56=EXECLINKS|37=1|39=0|150=0|10=187|8=FIX.4.4|9=98|35=8|34=13|49=COEPEXCH|52=20200825-12:50:13.219|56=EXECLINKS|37=3|38=1|39=2|44=87.0|55=amzn|150=F|10=132|8=FIX.4.4|9=98|35=8|34=14|49=COEPEXCH|52=20200825-12:50:13.219|56=EXECLINKS|37=1|38=1|39=1|44=87.0|55=amzn|150=F|10=130|8=FIX.4.4|9=77|35=8|34=15|49=COEPEXCH|52=20200825-12:50:13.220|56=EXECLINKS|37=2|39=0|150=0|10=183|8=FIX.4.4|9=98|35=8|34=16|49=COEPEXCH|52=20200825-12:50:13.221|56=EXECLINKS|37=2|38=1|39=2|44=87.0|55=amzn|150=F|10=127|8=FIX.4.4|9=98|35=8|34=17|49=COEPEXCH|52=20200825-12:50:13.221|56=EXECLINKS|37=1|38=1|39=2|44=87.0|55=amzn|150=F|10=127|8=FIX.4.4|9=77|35=8|34=18|49=COEPEXCH|52=20200825-12:50:13.222|56=EXECLINKS|37=3|39=0|150=0|10=189|8=FIX.4.4|9=77|35=8|34=19|49=COEPEXCH|52=20200825-12:50:13.222|56=EXECLINKS|37=4|39=0|150=0|10=191|8=FIX.4.4|9=61|35=5|34=20|49=COEPEXCH|52=20200825-12:50:13.223|56=EXECLINKS|10=244|